{
  "contractName": "Coupoken",
  "abi": [
    {
      "inputs": [],
      "payable": false,
      "stateMutability": "nonpayable",
      "type": "constructor"
    },
    {
      "anonymous": false,
      "inputs": [
        {
          "indexed": true,
          "internalType": "address",
          "name": "owner",
          "type": "address"
        },
        {
          "indexed": true,
          "internalType": "address",
          "name": "approved",
          "type": "address"
        },
        {
          "indexed": true,
          "internalType": "uint256",
          "name": "tokenId",
          "type": "uint256"
        }
      ],
      "name": "Approval",
      "type": "event"
    },
    {
      "anonymous": false,
      "inputs": [
        {
          "indexed": true,
          "internalType": "address",
          "name": "owner",
          "type": "address"
        },
        {
          "indexed": true,
          "internalType": "address",
          "name": "operator",
          "type": "address"
        },
        {
          "indexed": false,
          "internalType": "bool",
          "name": "approved",
          "type": "bool"
        }
      ],
      "name": "ApprovalForAll",
      "type": "event"
    },
    {
      "anonymous": false,
      "inputs": [],
      "name": "NotPausable",
      "type": "event"
    },
    {
      "anonymous": false,
      "inputs": [
        {
          "indexed": true,
          "internalType": "address",
          "name": "previousOwner",
          "type": "address"
        },
        {
          "indexed": true,
          "internalType": "address",
          "name": "newOwner",
          "type": "address"
        }
      ],
      "name": "OwnershipTransferred",
      "type": "event"
    },
    {
      "anonymous": false,
      "inputs": [],
      "name": "Pause",
      "type": "event"
    },
    {
      "anonymous": false,
      "inputs": [
        {
          "indexed": true,
          "internalType": "address",
          "name": "from",
          "type": "address"
        },
        {
          "indexed": true,
          "internalType": "address",
          "name": "to",
          "type": "address"
        },
        {
          "indexed": true,
          "internalType": "uint256",
          "name": "tokenId",
          "type": "uint256"
        }
      ],
      "name": "Transfer",
      "type": "event"
    },
    {
      "anonymous": false,
      "inputs": [],
      "name": "Unpause",
      "type": "event"
    },
    {
      "constant": true,
      "inputs": [
        {
          "internalType": "address",
          "name": "",
          "type": "address"
        }
      ],
      "name": "addressToMerchant",
      "outputs": [
        {
          "internalType": "uint256",
          "name": "createdAt",
          "type": "uint256"
        },
        {
          "internalType": "string",
          "name": "name",
          "type": "string"
        },
        {
          "internalType": "string",
          "name": "category",
          "type": "string"
        },
        {
          "internalType": "string",
          "name": "websiteUrl",
          "type": "string"
        },
        {
          "internalType": "bool",
          "name": "enabled",
          "type": "bool"
        },
        {
          "internalType": "string",
          "name": "merchantURI",
          "type": "string"
        }
      ],
      "payable": false,
      "stateMutability": "view",
      "type": "function"
    },
    {
      "constant": false,
      "inputs": [
        {
          "internalType": "address",
          "name": "to",
          "type": "address"
        },
        {
          "internalType": "uint256",
          "name": "tokenId",
          "type": "uint256"
        }
      ],
      "name": "approve",
      "outputs": [],
      "payable": false,
      "stateMutability": "nonpayable",
      "type": "function"
    },
    {
      "constant": true,
      "inputs": [
        {
          "internalType": "address",
          "name": "owner",
          "type": "address"
        }
      ],
      "name": "balanceOf",
      "outputs": [
        {
          "internalType": "uint256",
          "name": "",
          "type": "uint256"
        }
      ],
      "payable": false,
      "stateMutability": "view",
      "type": "function"
    },
    {
      "constant": true,
      "inputs": [],
      "name": "baseURI",
      "outputs": [
        {
          "internalType": "string",
          "name": "",
          "type": "string"
        }
      ],
      "payable": false,
      "stateMutability": "view",
      "type": "function"
    },
    {
      "constant": true,
      "inputs": [],
      "name": "canPause",
      "outputs": [
        {
          "internalType": "bool",
          "name": "",
          "type": "bool"
        }
      ],
      "payable": false,
      "stateMutability": "view",
      "type": "function"
    },
    {
      "constant": true,
      "inputs": [
        {
          "internalType": "uint256",
          "name": "tokenId",
          "type": "uint256"
        }
      ],
      "name": "getApproved",
      "outputs": [
        {
          "internalType": "address",
          "name": "",
          "type": "address"
        }
      ],
      "payable": false,
      "stateMutability": "view",
      "type": "function"
    },
    {
      "constant": true,
      "inputs": [
        {
          "internalType": "address",
          "name": "owner",
          "type": "address"
        },
        {
          "internalType": "address",
          "name": "operator",
          "type": "address"
        }
      ],
      "name": "isApprovedForAll",
      "outputs": [
        {
          "internalType": "bool",
          "name": "",
          "type": "bool"
        }
      ],
      "payable": false,
      "stateMutability": "view",
      "type": "function"
    },
    {
      "constant": true,
      "inputs": [],
      "name": "isOwner",
      "outputs": [
        {
          "internalType": "bool",
          "name": "",
          "type": "bool"
        }
      ],
      "payable": false,
      "stateMutability": "view",
      "type": "function"
    },
    {
      "constant": true,
      "inputs": [
        {
          "internalType": "uint256",
          "name": "",
          "type": "uint256"
        }
      ],
      "name": "merchantList",
      "outputs": [
        {
          "internalType": "address",
          "name": "",
          "type": "address"
        }
      ],
      "payable": false,
      "stateMutability": "view",
      "type": "function"
    },
    {
      "constant": true,
      "inputs": [],
      "name": "name",
      "outputs": [
        {
          "internalType": "string",
          "name": "",
          "type": "string"
        }
      ],
      "payable": false,
      "stateMutability": "view",
      "type": "function"
    },
    {
      "constant": false,
      "inputs": [],
      "name": "notPausable",
      "outputs": [],
      "payable": false,
      "stateMutability": "nonpayable",
      "type": "function"
    },
    {
      "constant": true,
      "inputs": [],
      "name": "owner",
      "outputs": [
        {
          "internalType": "address",
          "name": "",
          "type": "address"
        }
      ],
      "payable": false,
      "stateMutability": "view",
      "type": "function"
    },
    {
      "constant": true,
      "inputs": [
        {
          "internalType": "uint256",
          "name": "tokenId",
          "type": "uint256"
        }
      ],
      "name": "ownerOf",
      "outputs": [
        {
          "internalType": "address",
          "name": "",
          "type": "address"
        }
      ],
      "payable": false,
      "stateMutability": "view",
      "type": "function"
    },
    {
      "constant": false,
      "inputs": [],
      "name": "pause",
      "outputs": [],
      "payable": false,
      "stateMutability": "nonpayable",
      "type": "function"
    },
    {
      "constant": true,
      "inputs": [],
      "name": "paused",
      "outputs": [
        {
          "internalType": "bool",
          "name": "",
          "type": "bool"
        }
      ],
      "payable": false,
      "stateMutability": "view",
      "type": "function"
    },
    {
      "constant": false,
      "inputs": [],
      "name": "renounceOwnership",
      "outputs": [],
      "payable": false,
      "stateMutability": "nonpayable",
      "type": "function"
    },
    {
      "constant": false,
      "inputs": [
        {
          "internalType": "address",
          "name": "from",
          "type": "address"
        },
        {
          "internalType": "address",
          "name": "to",
          "type": "address"
        },
        {
          "internalType": "uint256",
          "name": "tokenId",
          "type": "uint256"
        }
      ],
      "name": "safeTransferFrom",
      "outputs": [],
      "payable": false,
      "stateMutability": "nonpayable",
      "type": "function"
    },
    {
      "constant": false,
      "inputs": [
        {
          "internalType": "address",
          "name": "from",
          "type": "address"
        },
        {
          "internalType": "address",
          "name": "to",
          "type": "address"
        },
        {
          "internalType": "uint256",
          "name": "tokenId",
          "type": "uint256"
        },
        {
          "internalType": "bytes",
          "name": "_data",
          "type": "bytes"
        }
      ],
      "name": "safeTransferFrom",
      "outputs": [],
      "payable": false,
      "stateMutability": "nonpayable",
      "type": "function"
    },
    {
      "constant": false,
      "inputs": [
        {
          "internalType": "address",
          "name": "to",
          "type": "address"
        },
        {
          "internalType": "bool",
          "name": "approved",
          "type": "bool"
        }
      ],
      "name": "setApprovalForAll",
      "outputs": [],
      "payable": false,
      "stateMutability": "nonpayable",
      "type": "function"
    },
    {
      "constant": true,
      "inputs": [
        {
          "internalType": "bytes4",
          "name": "interfaceId",
          "type": "bytes4"
        }
      ],
      "name": "supportsInterface",
      "outputs": [
        {
          "internalType": "bool",
          "name": "",
          "type": "bool"
        }
      ],
      "payable": false,
      "stateMutability": "view",
      "type": "function"
    },
    {
      "constant": true,
      "inputs": [],
      "name": "symbol",
      "outputs": [
        {
          "internalType": "string",
          "name": "",
          "type": "string"
        }
      ],
      "payable": false,
      "stateMutability": "view",
      "type": "function"
    },
    {
      "constant": true,
      "inputs": [
        {
          "internalType": "uint256",
          "name": "index",
          "type": "uint256"
        }
      ],
      "name": "tokenByIndex",
      "outputs": [
        {
          "internalType": "uint256",
          "name": "",
          "type": "uint256"
        }
      ],
      "payable": false,
      "stateMutability": "view",
      "type": "function"
    },
    {
      "constant": true,
      "inputs": [
        {
          "internalType": "uint256",
          "name": "",
          "type": "uint256"
        }
      ],
      "name": "tokenIdToCouponInfo",
      "outputs": [
        {
          "internalType": "uint256",
          "name": "discountSize",
          "type": "uint256"
        },
        {
          "internalType": "uint256",
          "name": "price",
          "type": "uint256"
        },
        {
          "internalType": "uint256",
          "name": "deadline",
          "type": "uint256"
        },
        {
          "internalType": "uint256",
          "name": "createdAt",
          "type": "uint256"
        },
        {
          "internalType": "address",
          "name": "merchantAdr",
          "type": "address"
        },
        {
          "internalType": "bool",
          "name": "tradable",
          "type": "bool"
        },
        {
          "internalType": "string",
          "name": "category",
          "type": "string"
        }
      ],
      "payable": false,
      "stateMutability": "view",
      "type": "function"
    },
    {
      "constant": true,
      "inputs": [
        {
          "internalType": "address",
          "name": "owner",
          "type": "address"
        },
        {
          "internalType": "uint256",
          "name": "index",
          "type": "uint256"
        }
      ],
      "name": "tokenOfOwnerByIndex",
      "outputs": [
        {
          "internalType": "uint256",
          "name": "",
          "type": "uint256"
        }
      ],
      "payable": false,
      "stateMutability": "view",
      "type": "function"
    },
    {
      "constant": true,
      "inputs": [
        {
          "internalType": "uint256",
          "name": "tokenId",
          "type": "uint256"
        }
      ],
      "name": "tokenURI",
      "outputs": [
        {
          "internalType": "string",
          "name": "",
          "type": "string"
        }
      ],
      "payable": false,
      "stateMutability": "view",
      "type": "function"
    },
    {
      "constant": true,
      "inputs": [],
      "name": "totalSupply",
      "outputs": [
        {
          "internalType": "uint256",
          "name": "",
          "type": "uint256"
        }
      ],
      "payable": false,
      "stateMutability": "view",
      "type": "function"
    },
    {
      "constant": false,
      "inputs": [
        {
          "internalType": "address",
          "name": "from",
          "type": "address"
        },
        {
          "internalType": "address",
          "name": "to",
          "type": "address"
        },
        {
          "internalType": "uint256",
          "name": "tokenId",
          "type": "uint256"
        }
      ],
      "name": "transferFrom",
      "outputs": [],
      "payable": false,
      "stateMutability": "nonpayable",
      "type": "function"
    },
    {
      "constant": false,
      "inputs": [
        {
          "internalType": "address",
          "name": "newOwner",
          "type": "address"
        }
      ],
      "name": "transferOwnership",
      "outputs": [],
      "payable": false,
      "stateMutability": "nonpayable",
      "type": "function"
    },
    {
      "constant": false,
      "inputs": [],
      "name": "unpause",
      "outputs": [],
      "payable": false,
      "stateMutability": "nonpayable",
      "type": "function"
    },
    {
      "constant": true,
      "inputs": [],
      "name": "getMerchantList",
      "outputs": [
        {
          "internalType": "address[]",
          "name": "",
          "type": "address[]"
        }
      ],
      "payable": false,
      "stateMutability": "view",
      "type": "function"
    },
    {
      "constant": false,
      "inputs": [
        {
          "internalType": "string",
          "name": "_name",
          "type": "string"
        },
        {
          "internalType": "string",
          "name": "_category",
          "type": "string"
        },
        {
          "internalType": "string",
          "name": "_websiteUrl",
          "type": "string"
        },
        {
          "internalType": "string",
          "name": "_merchantURI",
          "type": "string"
        }
      ],
      "name": "createMerchant",
      "outputs": [],
      "payable": false,
      "stateMutability": "nonpayable",
      "type": "function"
    },
    {
      "constant": false,
      "inputs": [
        {
          "internalType": "uint256",
          "name": "_discountSize",
          "type": "uint256"
        },
        {
          "internalType": "uint256",
          "name": "_price",
          "type": "uint256"
        },
        {
          "internalType": "uint256",
          "name": "_deadline",
          "type": "uint256"
        },
        {
          "internalType": "uint256",
          "name": "_tokenId",
          "type": "uint256"
        },
        {
          "internalType": "string",
          "name": "_tokenURI",
          "type": "string"
        },
        {
          "internalType": "string",
          "name": "_category",
          "type": "string"
        }
      ],
      "name": "createCoupon",
      "outputs": [],
      "payable": false,
      "stateMutability": "nonpayable",
      "type": "function"
    },
    {
      "constant": false,
      "inputs": [
        {
          "internalType": "address",
          "name": "_target",
          "type": "address"
        },
        {
          "internalType": "uint256",
          "name": "_tokenId",
          "type": "uint256"
        }
      ],
      "name": "transferCoupon",
      "outputs": [],
      "payable": false,
      "stateMutability": "nonpayable",
      "type": "function"
    },
    {
      "constant": false,
      "inputs": [
        {
          "internalType": "uint256",
          "name": "_tokenId",
          "type": "uint256"
        },
        {
          "internalType": "bool",
          "name": "_tradable",
          "type": "bool"
        }
      ],
      "name": "toggleLockCoupon",
      "outputs": [],
      "payable": false,
      "stateMutability": "nonpayable",
      "type": "function"
    },
    {
      "constant": false,
      "inputs": [
        {
          "internalType": "uint256",
          "name": "_tokenId",
          "type": "uint256"
        },
        {
          "internalType": "uint256",
          "name": "_price",
          "type": "uint256"
        }
      ],
      "name": "setPriceCoupon",
      "outputs": [],
      "payable": false,
      "stateMutability": "nonpayable",
      "type": "function"
    },
    {
      "constant": false,
      "inputs": [
        {
          "internalType": "uint256",
          "name": "_tokenId",
          "type": "uint256"
        },
        {
          "internalType": "uint256",
          "name": "_deadline",
          "type": "uint256"
        }
      ],
      "name": "setDeadlineCoupon",
      "outputs": [],
      "payable": false,
      "stateMutability": "nonpayable",
      "type": "function"
    },
    {
      "constant": false,
      "inputs": [
        {
          "internalType": "address",
          "name": "_target",
          "type": "address"
        },
        {
          "internalType": "uint256",
          "name": "_tokenId",
          "type": "uint256"
        }
      ],
      "name": "claimBackCoupon",
      "outputs": [],
      "payable": false,
      "stateMutability": "nonpayable",
      "type": "function"
    },
    {
      "constant": true,
      "inputs": [
        {
          "internalType": "uint256",
          "name": "_tokenId",
          "type": "uint256"
        }
      ],
      "name": "getCouponInfo",
      "outputs": [
        {
          "internalType": "uint256",
          "name": "discountSize",
          "type": "uint256"
        },
        {
          "internalType": "uint256",
          "name": "price",
          "type": "uint256"
        },
        {
          "internalType": "uint256",
          "name": "deadline",
          "type": "uint256"
        },
        {
          "internalType": "uint256",
          "name": "createdAt",
          "type": "uint256"
        },
        {
          "internalType": "address",
          "name": "merchantAdr",
          "type": "address"
        },
        {
          "internalType": "bool",
          "name": "tradable",
          "type": "bool"
        },
        {
          "internalType": "string",
          "name": "_category",
          "type": "string"
        }
      ],
      "payable": false,
      "stateMutability": "view",
      "type": "function"
    },
    {
      "constant": true,
      "inputs": [
        {
          "internalType": "address",
          "name": "_merchantAdr",
          "type": "address"
        }
      ],
      "name": "getMerchantInfo",
      "outputs": [
        {
          "internalType": "uint256",
          "name": "createdAt",
          "type": "uint256"
        },
        {
          "internalType": "string",
          "name": "merchantName",
          "type": "string"
        },
        {
          "internalType": "string",
          "name": "category",
          "type": "string"
        },
        {
          "internalType": "string",
          "name": "websiteUrl",
          "type": "string"
        },
        {
          "internalType": "bool",
          "name": "enabled",
          "type": "bool"
        },
        {
          "internalType": "string",
          "name": "merchantURI",
          "type": "string"
        }
      ],
      "payable": false,
      "stateMutability": "view",
      "type": "function"
    },
    {
      "constant": false,
      "inputs": [
        {
          "internalType": "uint256",
          "name": "_tokenId",
          "type": "uint256"
        }
      ],
      "name": "buyCoupon",
      "outputs": [],
      "payable": true,
      "stateMutability": "payable",
      "type": "function"
    },
    {
      "constant": true,
      "inputs": [
        {
          "internalType": "address",
          "name": "_owner",
          "type": "address"
        }
      ],
      "name": "tokensOfOwner",
      "outputs": [
        {
          "internalType": "uint256[]",
          "name": "ownerTokens",
          "type": "uint256[]"
        }
      ],
      "payable": false,
      "stateMutability": "view",
      "type": "function"
    },
    {
      "constant": true,
      "inputs": [
        {
          "internalType": "string",
          "name": "_category",
          "type": "string"
        }
      ],
      "name": "tokensOfCategory",
      "outputs": [
        {
          "internalType": "uint256[]",
          "name": "ownerTokens",
          "type": "uint256[]"
        }
      ],
      "payable": false,
      "stateMutability": "view",
      "type": "function"
    }
  ],
  "bytecode": "0x60806040526000600d60146101000a81548160ff0219169083151502179055506001600d60156101000a81548160ff0219169083151502179055503480156200004757600080fd5b506040518060400160405280600881526020017f436f75706f6b656e0000000000000000000000000000000000000000000000008152506040518060400160405280600381526020017f43504b00000000000000000000000000000000000000000000000000000000008152508181620000ce6301ffc9a760e01b6200020360201b60201c565b620000e66380ac58cd60e01b6200020360201b60201c565b620000fe63780e9d6360e01b6200020360201b60201c565b81600990805190602001906200011692919062000314565b5080600a90805190602001906200012f92919062000314565b5062000148635b5e139f60e01b6200020360201b60201c565b5050505060006200015e6200030c60201b60201c565b905080600d60006101000a81548173ffffffffffffffffffffffffffffffffffffffff021916908373ffffffffffffffffffffffffffffffffffffffff1602179055508073ffffffffffffffffffffffffffffffffffffffff16600073ffffffffffffffffffffffffffffffffffffffff167f8be0079c531659141344cd1fd0a4f28419497f9722a3daafe3b4186f6b6457e060405160405180910390a350620003c3565b63ffffffff60e01b817bffffffffffffffffffffffffffffffffffffffffffffffffffffffff19161415620002a0576040517f08c379a000000000000000000000000000000000000000000000000000000000815260040180806020018281038252601c8152602001807f4552433136353a20696e76616c696420696e746572666163652069640000000081525060200191505060405180910390fd5b6001600080837bffffffffffffffffffffffffffffffffffffffffffffffffffffffff19167bffffffffffffffffffffffffffffffffffffffffffffffffffffffff1916815260200190815260200160002060006101000a81548160ff02191690831515021790555050565b600033905090565b828054600181600116156101000203166002900490600052602060002090601f016020900481019282601f106200035757805160ff191683800117855562000388565b8280016001018555821562000388579182015b82811115620003875782518255916020019190600101906200036a565b5b5090506200039791906200039b565b5090565b620003c091905b80821115620003bc576000816000905550600101620003a2565b5090565b90565b615c5280620003d36000396000f3fe6080604052600436106102515760003560e01c80638456cb5911610139578063c7557757116100b6578063eb99c9681161007a578063eb99c96814611427578063f2dbe88d1461146e578063f2fde38b146114c9578063f3c7b8fc1461151a578063f71c30191461161d578063fce173751461172b57610251565b8063c755775714611045578063c795fd971461108a578063c87b56dd1461120f578063d2088fb9146112c3578063e985e9c51461139e57610251565b806395d89b41116100fd57806395d89b4114610cdd5780639a93aec014610d6d5780639b8909a514610dc8578063a22cb46514610ed6578063b88d4fde14610f3357610251565b80638456cb5914610b6c5780638462151c14610b8357806386d3ebc714610c295780638da5cb5b14610c575780638f32d59b14610cae57610251565b8063323be1c5116101d25780635c975abb116101965780635c975abb1461097157806362b3642f146109a05780636352211e146109e55780636c0360eb14610a6057806370a0823114610af0578063715018a614610b5557610251565b8063323be1c51461084a5780633f4ba83a1461087957806342842e0e146108905780634be8b05e1461090b5780634f6ccce71461092257610251565b806318160ddd1161021957806318160ddd1461064e5780631b795d561461067957806323b872dd146106f45780632f745c591461076f578063313beb55146107de57610251565b806301ffc9a71461025657806306fdde03146102c8578063081812fc14610358578063095ea7b3146103d35780630e733ef11461042e575b600080fd5b34801561026257600080fd5b506102ae6004803603602081101561027957600080fd5b8101908080357bffffffffffffffffffffffffffffffffffffffffffffffffffffffff1916906020019092919050505061194b565b604051808215151515815260200191505060405180910390f35b3480156102d457600080fd5b506102dd6119b2565b6040518080602001828103825283818151815260200191508051906020019080838360005b8381101561031d578082015181840152602081019050610302565b50505050905090810190601f16801561034a5780820380516001836020036101000a031916815260200191505b509250505060405180910390f35b34801561036457600080fd5b506103916004803603602081101561037b57600080fd5b8101908080359060200190929190505050611a54565b604051808273ffffffffffffffffffffffffffffffffffffffff1673ffffffffffffffffffffffffffffffffffffffff16815260200191505060405180910390f35b3480156103df57600080fd5b5061042c600480360360408110156103f657600080fd5b81019080803573ffffffffffffffffffffffffffffffffffffffff16906020019092919080359060200190929190505050611aef565b005b34801561043a57600080fd5b5061047d6004803603602081101561045157600080fd5b81019080803573ffffffffffffffffffffffffffffffffffffffff169060200190929190505050611cd6565b60405180878152602001806020018060200180602001861515151581526020018060200185810385528a818151815260200191508051906020019080838360005b838110156104d95780820151818401526020810190506104be565b50505050905090810190601f1680156105065780820380516001836020036101000a031916815260200191505b50858103845289818151815260200191508051906020019080838360005b8381101561053f578082015181840152602081019050610524565b50505050905090810190601f16801561056c5780820380516001836020036101000a031916815260200191505b50858103835288818151815260200191508051906020019080838360005b838110156105a557808201518184015260208101905061058a565b50505050905090810190601f1680156105d25780820380516001836020036101000a031916815260200191505b50858103825286818151815260200191508051906020019080838360005b8381101561060b5780820151818401526020810190506105f0565b50505050905090810190601f1680156106385780820380516001836020036101000a031916815260200191505b509a505050505050505050505060405180910390f35b34801561065a57600080fd5b50610663612101565b6040518082815260200191505060405180910390f35b34801561068557600080fd5b506106b26004803603602081101561069c57600080fd5b810190808035906020019092919050505061210e565b604051808273ffffffffffffffffffffffffffffffffffffffff1673ffffffffffffffffffffffffffffffffffffffff16815260200191505060405180910390f35b34801561070057600080fd5b5061076d6004803603606081101561071757600080fd5b81019080803573ffffffffffffffffffffffffffffffffffffffff169060200190929190803573ffffffffffffffffffffffffffffffffffffffff1690602001909291908035906020019092919050505061214a565b005b34801561077b57600080fd5b506107c86004803603604081101561079257600080fd5b81019080803573ffffffffffffffffffffffffffffffffffffffff169060200190929190803590602001909291905050506121c0565b6040518082815260200191505060405180910390f35b3480156107ea57600080fd5b506107f361227f565b6040518080602001828103825283818151815260200191508051906020019060200280838360005b8381101561083657808201518184015260208101905061081b565b505050509050019250505060405180910390f35b34801561085657600080fd5b5061085f61230d565b604051808215151515815260200191505060405180910390f35b34801561088557600080fd5b5061088e612320565b005b34801561089c57600080fd5b50610909600480360360608110156108b357600080fd5b81019080803573ffffffffffffffffffffffffffffffffffffffff169060200190929190803573ffffffffffffffffffffffffffffffffffffffff1690602001909291908035906020019092919050505061241c565b005b34801561091757600080fd5b5061092061243c565b005b34801561092e57600080fd5b5061095b6004803603602081101561094557600080fd5b810190808035906020019092919050505061251a565b6040518082815260200191505060405180910390f35b34801561097d57600080fd5b5061098661259a565b604051808215151515815260200191505060405180910390f35b3480156109ac57600080fd5b506109e3600480360360408110156109c357600080fd5b8101908080359060200190929190803590602001909291905050506125ad565b005b3480156109f157600080fd5b50610a1e60048036036020811015610a0857600080fd5b8101908080359060200190929190505050612677565b604051808273ffffffffffffffffffffffffffffffffffffffff1673ffffffffffffffffffffffffffffffffffffffff16815260200191505060405180910390f35b348015610a6c57600080fd5b50610a7561273f565b6040518080602001828103825283818151815260200191508051906020019080838360005b83811015610ab5578082015181840152602081019050610a9a565b50505050905090810190601f168015610ae25780820380516001836020036101000a031916815260200191505b509250505060405180910390f35b348015610afc57600080fd5b50610b3f60048036036020811015610b1357600080fd5b81019080803573ffffffffffffffffffffffffffffffffffffffff1690602001909291905050506127e1565b6040518082815260200191505060405180910390f35b348015610b6157600080fd5b50610b6a6128b6565b005b348015610b7857600080fd5b50610b816129f1565b005b348015610b8f57600080fd5b50610bd260048036036020811015610ba657600080fd5b81019080803573ffffffffffffffffffffffffffffffffffffffff169060200190929190505050612b2b565b6040518080602001828103825283818151815260200191508051906020019060200280838360005b83811015610c15578082015181840152602081019050610bfa565b505050509050019250505060405180910390f35b610c5560048036036020811015610c3f57600080fd5b8101908080359060200190929190505050612c48565b005b348015610c6357600080fd5b50610c6c612e02565b604051808273ffffffffffffffffffffffffffffffffffffffff1673ffffffffffffffffffffffffffffffffffffffff16815260200191505060405180910390f35b348015610cba57600080fd5b50610cc3612e2c565b604051808215151515815260200191505060405180910390f35b348015610ce957600080fd5b50610cf2612e8b565b6040518080602001828103825283818151815260200191508051906020019080838360005b83811015610d32578082015181840152602081019050610d17565b50505050905090810190601f168015610d5f5780820380516001836020036101000a031916815260200191505b509250505060405180910390f35b348015610d7957600080fd5b50610dc660048036036040811015610d9057600080fd5b81019080803573ffffffffffffffffffffffffffffffffffffffff16906020019092919080359060200190929190505050612f2d565b005b348015610dd457600080fd5b50610e0160048036036020811015610deb57600080fd5b810190808035906020019092919050505061303e565b604051808881526020018781526020018681526020018581526020018473ffffffffffffffffffffffffffffffffffffffff1673ffffffffffffffffffffffffffffffffffffffff1681526020018315151515815260200180602001828103825283818151815260200191508051906020019080838360005b83811015610e95578082015181840152602081019050610e7a565b50505050905090810190601f168015610ec25780820380516001836020036101000a031916815260200191505b509850505050505050505060405180910390f35b348015610ee257600080fd5b50610f3160048036036040811015610ef957600080fd5b81019080803573ffffffffffffffffffffffffffffffffffffffff1690602001909291908035151590602001909291905050506131cb565b005b348015610f3f57600080fd5b5061104360048036036080811015610f5657600080fd5b81019080803573ffffffffffffffffffffffffffffffffffffffff169060200190929190803573ffffffffffffffffffffffffffffffffffffffff1690602001909291908035906020019092919080359060200190640100000000811115610fbd57600080fd5b820183602082011115610fcf57600080fd5b80359060200191846001830284011164010000000083111715610ff157600080fd5b91908080601f016020809104026020016040519081016040528093929190818152602001838380828437600081840152601f19601f820116905080830192505050505050509192919290505050613383565b005b34801561105157600080fd5b506110886004803603604081101561106857600080fd5b8101908080359060200190929190803590602001909291905050506133fb565b005b34801561109657600080fd5b5061120d600480360360808110156110ad57600080fd5b81019080803590602001906401000000008111156110ca57600080fd5b8201836020820111156110dc57600080fd5b803590602001918460018302840111640100000000831117156110fe57600080fd5b90919293919293908035906020019064010000000081111561111f57600080fd5b82018360208201111561113157600080fd5b8035906020019184600183028401116401000000008311171561115357600080fd5b90919293919293908035906020019064010000000081111561117457600080fd5b82018360208201111561118657600080fd5b803590602001918460018302840111640100000000831117156111a857600080fd5b9091929391929390803590602001906401000000008111156111c957600080fd5b8201836020820111156111db57600080fd5b803590602001918460018302840111640100000000831117156111fd57600080fd5b90919293919293905050506134c9565b005b34801561121b57600080fd5b506112486004803603602081101561123257600080fd5b8101908080359060200190929190505050613874565b6040518080602001828103825283818151815260200191508051906020019080838360005b8381101561128857808201518184015260208101905061126d565b50505050905090810190601f1680156112b55780820380516001836020036101000a031916815260200191505b509250505060405180910390f35b3480156112cf57600080fd5b50611347600480360360208110156112e657600080fd5b810190808035906020019064010000000081111561130357600080fd5b82018360208201111561131557600080fd5b8035906020019184600183028401116401000000008311171561133757600080fd5b9091929391929390505050613a76565b6040518080602001828103825283818151815260200191508051906020019060200280838360005b8381101561138a57808201518184015260208101905061136f565b505050509050019250505060405180910390f35b3480156113aa57600080fd5b5061140d600480360360408110156113c157600080fd5b81019080803573ffffffffffffffffffffffffffffffffffffffff169060200190929190803573ffffffffffffffffffffffffffffffffffffffff169060200190929190505050613c14565b604051808215151515815260200191505060405180910390f35b34801561143357600080fd5b5061146c6004803603604081101561144a57600080fd5b8101908080359060200190929190803515159060200190929190505050613ca8565b005b34801561147a57600080fd5b506114c76004803603604081101561149157600080fd5b81019080803573ffffffffffffffffffffffffffffffffffffffff16906020019092919080359060200190929190505050613d85565b005b3480156114d557600080fd5b50611518600480360360208110156114ec57600080fd5b81019080803573ffffffffffffffffffffffffffffffffffffffff169060200190929190505050613ef4565b005b34801561152657600080fd5b5061161b600480360360c081101561153d57600080fd5b81019080803590602001909291908035906020019092919080359060200190929190803590602001909291908035906020019064010000000081111561158257600080fd5b82018360208201111561159457600080fd5b803590602001918460018302840111640100000000831117156115b657600080fd5b9091929391929390803590602001906401000000008111156115d757600080fd5b8201836020820111156115e957600080fd5b8035906020019184600183028401116401000000008311171561160b57600080fd5b9091929391929390505050613f7a565b005b34801561162957600080fd5b506116566004803603602081101561164057600080fd5b8101908080359060200190929190505050614291565b604051808881526020018781526020018681526020018581526020018473ffffffffffffffffffffffffffffffffffffffff1673ffffffffffffffffffffffffffffffffffffffff1681526020018315151515815260200180602001828103825283818151815260200191508051906020019080838360005b838110156116ea5780820151818401526020810190506116cf565b50505050905090810190601f1680156117175780820380516001836020036101000a031916815260200191505b509850505050505050505060405180910390f35b34801561173757600080fd5b5061177a6004803603602081101561174e57600080fd5b81019080803573ffffffffffffffffffffffffffffffffffffffff169060200190929190505050614398565b60405180878152602001806020018060200180602001861515151581526020018060200185810385528a818151815260200191508051906020019080838360005b838110156117d65780820151818401526020810190506117bb565b50505050905090810190601f1680156118035780820380516001836020036101000a031916815260200191505b50858103845289818151815260200191508051906020019080838360005b8381101561183c578082015181840152602081019050611821565b50505050905090810190601f1680156118695780820380516001836020036101000a031916815260200191505b50858103835288818151815260200191508051906020019080838360005b838110156118a2578082015181840152602081019050611887565b50505050905090810190601f1680156118cf5780820380516001836020036101000a031916815260200191505b50858103825286818151815260200191508051906020019080838360005b838110156119085780820151818401526020810190506118ed565b50505050905090810190601f1680156119355780820380516001836020036101000a031916815260200191505b509a505050505050505050505060405180910390f35b6000806000837bffffffffffffffffffffffffffffffffffffffffffffffffffffffff19167bffffffffffffffffffffffffffffffffffffffffffffffffffffffff1916815260200190815260200160002060009054906101000a900460ff169050919050565b606060098054600181600116156101000203166002900480601f016020809104026020016040519081016040528092919081815260200182805460018160011615610100020316600290048015611a4a5780601f10611a1f57610100808354040283529160200191611a4a565b820191906000526020600020905b815481529060010190602001808311611a2d57829003601f168201915b5050505050905090565b6000611a5f82614641565b611ab4576040517f08c379a000000000000000000000000000000000000000000000000000000000815260040180806020018281038252602c815260200180615af0602c913960400191505060405180910390fd5b6002600083815260200190815260200160002060009054906101000a900473ffffffffffffffffffffffffffffffffffffffff169050919050565b6000611afa82612677565b90508073ffffffffffffffffffffffffffffffffffffffff168373ffffffffffffffffffffffffffffffffffffffff161415611b81576040517f08c379a0000000000000000000000000000000000000000000000000000000008152600401808060200182810382526021815260200180615ba06021913960400191505060405180910390fd5b8073ffffffffffffffffffffffffffffffffffffffff16611ba06146b3565b73ffffffffffffffffffffffffffffffffffffffff161480611bcf5750611bce81611bc96146b3565b613c14565b5b611c24576040517f08c379a0000000000000000000000000000000000000000000000000000000008152600401808060200182810382526038815260200180615a656038913960400191505060405180910390fd5b826002600084815260200190815260200160002060006101000a81548173ffffffffffffffffffffffffffffffffffffffff021916908373ffffffffffffffffffffffffffffffffffffffff160217905550818373ffffffffffffffffffffffffffffffffffffffff168273ffffffffffffffffffffffffffffffffffffffff167f8c5be1e5ebec7d5bd14f71427d1e84f3dd0314c0f7b2291e5b200ac8c7c3b92560405160405180910390a4505050565b6000606080606060006060600f60008873ffffffffffffffffffffffffffffffffffffffff1673ffffffffffffffffffffffffffffffffffffffff16815260200190815260200160002060000154600f60008973ffffffffffffffffffffffffffffffffffffffff1673ffffffffffffffffffffffffffffffffffffffff168152602001908152602001600020600101600f60008a73ffffffffffffffffffffffffffffffffffffffff1673ffffffffffffffffffffffffffffffffffffffff168152602001908152602001600020600201600f60008b73ffffffffffffffffffffffffffffffffffffffff1673ffffffffffffffffffffffffffffffffffffffff168152602001908152602001600020600301600f60008c73ffffffffffffffffffffffffffffffffffffffff1673ffffffffffffffffffffffffffffffffffffffff16815260200190815260200160002060040160009054906101000a900460ff16600f60008d73ffffffffffffffffffffffffffffffffffffffff1673ffffffffffffffffffffffffffffffffffffffff168152602001908152602001600020600501848054600181600116156101000203166002900480601f016020809104026020016040519081016040528092919081815260200182805460018160011615610100020316600290048015611f115780601f10611ee657610100808354040283529160200191611f11565b820191906000526020600020905b815481529060010190602001808311611ef457829003601f168201915b50505050509450838054600181600116156101000203166002900480601f016020809104026020016040519081016040528092919081815260200182805460018160011615610100020316600290048015611fad5780601f10611f8257610100808354040283529160200191611fad565b820191906000526020600020905b815481529060010190602001808311611f9057829003601f168201915b50505050509350828054600181600116156101000203166002900480601f0160208091040260200160405190810160405280929190818152602001828054600181600116156101000203166002900480156120495780601f1061201e57610100808354040283529160200191612049565b820191906000526020600020905b81548152906001019060200180831161202c57829003601f168201915b50505050509250808054600181600116156101000203166002900480601f0160208091040260200160405190810160405280929190818152602001828054600181600116156101000203166002900480156120e55780601f106120ba576101008083540402835291602001916120e5565b820191906000526020600020905b8154815290600101906020018083116120c857829003601f168201915b5050505050905095509550955095509550955091939550919395565b6000600780549050905090565b6011818154811061211b57fe5b906000526020600020016000915054906101000a900473ffffffffffffffffffffffffffffffffffffffff1681565b61215b6121556146b3565b826146bb565b6121b0576040517f08c379a0000000000000000000000000000000000000000000000000000000008152600401808060200182810382526031815260200180615bc16031913960400191505060405180910390fd5b6121bb8383836147af565b505050565b60006121cb836127e1565b8210612222576040517f08c379a000000000000000000000000000000000000000000000000000000000815260040180806020018281038252602b815260200180615968602b913960400191505060405180910390fd5b600560008473ffffffffffffffffffffffffffffffffffffffff1673ffffffffffffffffffffffffffffffffffffffff168152602001908152602001600020828154811061226c57fe5b9060005260206000200154905092915050565b6060601180548060200260200160405190810160405280929190818152602001828054801561230357602002820191906000526020600020905b8160009054906101000a900473ffffffffffffffffffffffffffffffffffffffff1673ffffffffffffffffffffffffffffffffffffffff16815260200190600101908083116122b9575b5050505050905090565b600d60159054906101000a900460ff1681565b612328612e2c565b61239a576040517f08c379a00000000000000000000000000000000000000000000000000000000081526004018080602001828103825260208152602001807f4f776e61626c653a2063616c6c6572206973206e6f7420746865206f776e657281525060200191505060405180910390fd5b600d60149054906101000a900460ff166123b357600080fd5b60011515600d60149054906101000a900460ff161515146123d357600080fd5b6000600d60146101000a81548160ff0219169083151502179055507f7805862f689e2f13df9f062ff482ad3ad112aca9e0847911ed832e158c525b3360405160405180910390a1565b61243783838360405180602001604052806000815250613383565b505050565b612444612e2c565b6124b6576040517f08c379a00000000000000000000000000000000000000000000000000000000081526004018080602001828103825260208152602001807f4f776e61626c653a2063616c6c6572206973206e6f7420746865206f776e657281525060200191505060405180910390fd5b6000600d60146101000a81548160ff0219169083151502179055506000600d60156101000a81548160ff0219169083151502179055507faff39f66825d4448497d384dee3f4a3adf00a622960add00806503ae4ccee01c60405160405180910390a1565b6000612524612101565b821061257b576040517f08c379a000000000000000000000000000000000000000000000000000000000815260040180806020018281038252602c815260200180615bf2602c913960400191505060405180910390fd5b6007828154811061258857fe5b90600052602060002001549050919050565b600d60149054906101000a900460ff1681565b816125b781612677565b73ffffffffffffffffffffffffffffffffffffffff163373ffffffffffffffffffffffffffffffffffffffff1614612657576040517f08c379a00000000000000000000000000000000000000000000000000000000081526004018080602001828103825260158152602001807f796f75206d75737420626520746865206f776e6572000000000000000000000081525060200191505060405180910390fd5b81600e600085815260200190815260200160002060010181905550505050565b6000806001600084815260200190815260200160002060009054906101000a900473ffffffffffffffffffffffffffffffffffffffff169050600073ffffffffffffffffffffffffffffffffffffffff168173ffffffffffffffffffffffffffffffffffffffff161415612736576040517f08c379a0000000000000000000000000000000000000000000000000000000008152600401808060200182810382526029815260200180615ac76029913960400191505060405180910390fd5b80915050919050565b6060600b8054600181600116156101000203166002900480601f0160208091040260200160405190810160405280929190818152602001828054600181600116156101000203166002900480156127d75780601f106127ac576101008083540402835291602001916127d7565b820191906000526020600020905b8154815290600101906020018083116127ba57829003601f168201915b5050505050905090565b60008073ffffffffffffffffffffffffffffffffffffffff168273ffffffffffffffffffffffffffffffffffffffff161415612868576040517f08c379a000000000000000000000000000000000000000000000000000000000815260040180806020018281038252602a815260200180615a9d602a913960400191505060405180910390fd5b6128af600360008473ffffffffffffffffffffffffffffffffffffffff1673ffffffffffffffffffffffffffffffffffffffff1681526020019081526020016000206147d3565b9050919050565b6128be612e2c565b612930576040517f08c379a00000000000000000000000000000000000000000000000000000000081526004018080602001828103825260208152602001807f4f776e61626c653a2063616c6c6572206973206e6f7420746865206f776e657281525060200191505060405180910390fd5b600073ffffffffffffffffffffffffffffffffffffffff16600d60009054906101000a900473ffffffffffffffffffffffffffffffffffffffff1673ffffffffffffffffffffffffffffffffffffffff167f8be0079c531659141344cd1fd0a4f28419497f9722a3daafe3b4186f6b6457e060405160405180910390a36000600d60006101000a81548173ffffffffffffffffffffffffffffffffffffffff021916908373ffffffffffffffffffffffffffffffffffffffff160217905550565b6129f9612e2c565b612a6b576040517f08c379a00000000000000000000000000000000000000000000000000000000081526004018080602001828103825260208152602001807f4f776e61626c653a2063616c6c6572206973206e6f7420746865206f776e657281525060200191505060405180910390fd5b600d60149054906101000a900460ff161580612ab95750612a8a612e02565b73ffffffffffffffffffffffffffffffffffffffff163373ffffffffffffffffffffffffffffffffffffffff16145b612ac257600080fd5b60011515600d60159054906101000a900460ff16151514612ae257600080fd5b6001600d60146101000a81548160ff0219169083151502179055507f6985a02210a168e66602d3235cb6db0e70f92b3ba4d376a33c0f3d9434bff62560405160405180910390a1565b60606000612b38836127e1565b90506000811415612b7c576000604051908082528060200260200182016040528015612b735781602001602082028038833980820191505090505b50915050612c43565b606081604051908082528060200260200182016040528015612bad5781602001602082028038833980820191505090505b5090506000612bba612101565b905060008090506000600190505b828111612c3a578673ffffffffffffffffffffffffffffffffffffffff16612bef82612677565b73ffffffffffffffffffffffffffffffffffffffff161415612c2d5780848381518110612c1857fe5b60200260200101818152505081806001019250505b8080600101915050612bc8565b83955050505050505b919050565b6000612c5382612677565b9050600e600083815260200190815260200160002060040160149054906101000a900460ff16612ceb576040517f08c379a00000000000000000000000000000000000000000000000000000000081526004018080602001828103825260148152602001807f5472616461626c65206e6f7420656e61626c656400000000000000000000000081525060200191505060405180910390fd5b600e6000838152602001908152602001600020600101543414612d59576040517f08c379a000000000000000000000000000000000000000000000000000000000815260040180806020018281038252602a815260200180615a0f602a913960400191505060405180910390fd5b612d648133846147af565b6000612d6f826147e1565b90508073ffffffffffffffffffffffffffffffffffffffff166108fc600e6000868152602001908152602001600020600101549081150290604051600060405180830381858888f19350505050158015612dcd573d6000803e3d6000fd5b506000600e600085815260200190815260200160002060040160146101000a81548160ff021916908315150217905550505050565b6000600d60009054906101000a900473ffffffffffffffffffffffffffffffffffffffff16905090565b6000600d60009054906101000a900473ffffffffffffffffffffffffffffffffffffffff1673ffffffffffffffffffffffffffffffffffffffff16612e6f6146b3565b73ffffffffffffffffffffffffffffffffffffffff1614905090565b6060600a8054600181600116156101000203166002900480601f016020809104026020016040519081016040528092919081815260200182805460018160011615610100020316600290048015612f235780601f10612ef857610100808354040283529160200191612f23565b820191906000526020600020905b815481529060010190602001808311612f0657829003601f168201915b5050505050905090565b600d60149054906101000a900460ff161580612f7b5750612f4c612e02565b73ffffffffffffffffffffffffffffffffffffffff163373ffffffffffffffffffffffffffffffffffffffff16145b612f8457600080fd5b80612f8e81612677565b73ffffffffffffffffffffffffffffffffffffffff163373ffffffffffffffffffffffffffffffffffffffff161461302e576040517f08c379a00000000000000000000000000000000000000000000000000000000081526004018080602001828103825260158152602001807f796f75206d75737420626520746865206f776e6572000000000000000000000081525060200191505060405180910390fd5b6130393384846147af565b505050565b6000806000806000806060600e600089815260200190815260200160002060000154600e60008a815260200190815260200160002060010154600e60008b815260200190815260200160002060020154600e60008c815260200190815260200160002060030154600e60008d815260200190815260200160002060040160009054906101000a900473ffffffffffffffffffffffffffffffffffffffff16600e60008e815260200190815260200160002060040160149054906101000a900460ff16600e60008f8152602001908152602001600020600501808054600181600116156101000203166002900480601f0160208091040260200160405190810160405280929190818152602001828054600181600116156101000203166002900480156131ab5780601f10613180576101008083540402835291602001916131ab565b820191906000526020600020905b81548152906001019060200180831161318e57829003601f168201915b505050505090509650965096509650965096509650919395979092949650565b6131d36146b3565b73ffffffffffffffffffffffffffffffffffffffff168273ffffffffffffffffffffffffffffffffffffffff161415613274576040517f08c379a00000000000000000000000000000000000000000000000000000000081526004018080602001828103825260198152602001807f4552433732313a20617070726f766520746f2063616c6c65720000000000000081525060200191505060405180910390fd5b80600460006132816146b3565b73ffffffffffffffffffffffffffffffffffffffff1673ffffffffffffffffffffffffffffffffffffffff16815260200190815260200160002060008473ffffffffffffffffffffffffffffffffffffffff1673ffffffffffffffffffffffffffffffffffffffff16815260200190815260200160002060006101000a81548160ff0219169083151502179055508173ffffffffffffffffffffffffffffffffffffffff1661332e6146b3565b73ffffffffffffffffffffffffffffffffffffffff167f17307eab39ab6107e8899845ad3d59bd9653f200f220920489ca2b5937696c3183604051808215151515815260200191505060405180910390a35050565b61339461338e6146b3565b836146bb565b6133e9576040517f08c379a0000000000000000000000000000000000000000000000000000000008152600401808060200182810382526031815260200180615bc16031913960400191505060405180910390fd5b6133f5848484846147eb565b50505050565b81600e600082815260200190815260200160002060040160009054906101000a900473ffffffffffffffffffffffffffffffffffffffff1673ffffffffffffffffffffffffffffffffffffffff163373ffffffffffffffffffffffffffffffffffffffff161480156134a0575061347181612677565b73ffffffffffffffffffffffffffffffffffffffff163373ffffffffffffffffffffffffffffffffffffffff16145b6134a957600080fd5b81600e600085815260200190815260200160002060020181905550505050565b6000600f60003373ffffffffffffffffffffffffffffffffffffffff1673ffffffffffffffffffffffffffffffffffffffff1681526020019081526020016000206000015414613581576040517f08c379a00000000000000000000000000000000000000000000000000000000081526004018080602001828103825260168152602001807f4475706c696361746573206e6f7420616c6c6f7765640000000000000000000081525060200191505060405180910390fd5b600d60149054906101000a900460ff1615806135cf57506135a0612e02565b73ffffffffffffffffffffffffffffffffffffffff163373ffffffffffffffffffffffffffffffffffffffff16145b6135d857600080fd5b6135e0615789565b6040518060c001604052804281526020018a8a8080601f016020809104026020016040519081016040528093929190818152602001838380828437600081840152601f19601f82011690508083019250505050505050815260200188888080601f016020809104026020016040519081016040528093929190818152602001838380828437600081840152601f19601f82011690508083019250505050505050815260200186868080601f016020809104026020016040519081016040528093929190818152602001838380828437600081840152601f19601f82011690508083019250505050505050815260200160011515815260200184848080601f016020809104026020016040519081016040528093929190818152602001838380828437600081840152601f19601f82011690508083019250505050505050815250905080600f60003373ffffffffffffffffffffffffffffffffffffffff1673ffffffffffffffffffffffffffffffffffffffff1681526020019081526020016000206000820151816000015560208201518160010190805190602001906137889291906157c1565b5060408201518160020190805190602001906137a59291906157c1565b5060608201518160030190805190602001906137c29291906157c1565b5060808201518160040160006101000a81548160ff02191690831515021790555060a08201518160050190805190602001906137ff9291906157c1565b5090505060113390806001815401808255809150509060018203906000526020600020016000909192909190916101000a81548173ffffffffffffffffffffffffffffffffffffffff021916908373ffffffffffffffffffffffffffffffffffffffff16021790555050505050505050505050565b606061387f82614641565b6138d4576040517f08c379a000000000000000000000000000000000000000000000000000000000815260040180806020018281038252602f815260200180615b71602f913960400191505060405180910390fd5b6060600c60008481526020019081526020016000208054600181600116156101000203166002900480601f01602080910402602001604051908101604052809291908181526020018280546001816001161561010002031660029004801561397d5780601f106139525761010080835404028352916020019161397d565b820191906000526020600020905b81548152906001019060200180831161396057829003601f168201915b505050505090506000815114156139a65760405180602001604052806000815250915050613a71565b600b816040516020018083805460018160011615610100020316600290048015613a075780601f106139e5576101008083540402835291820191613a07565b820191906000526020600020905b8154815290600101906020018083116139f3575b505082805190602001908083835b60208310613a385780518252602082019150602081019050602083039250613a15565b6001836020036101000a038019825116818451168082178552505050505050905001925050506040516020818303038152906040529150505b919050565b60606000613a82612101565b90506000811415613ac6576000604051908082528060200260200182016040528015613abd5781602001602082028038833980820191505090505b50915050613c0e565b606060108585604051808383808284378083019250505092505050908152602001604051809103902054604051908082528060200260200182016040528015613b1e5781602001602082028038833980820191505090505b50905060008090506000600190505b838111613c0657600e60008281526020019081526020016000206005016040518082805460018160011615610100020316600290048015613ba55780601f10613b83576101008083540402835291820191613ba5565b820191906000526020600020905b815481529060010190602001808311613b91575b50509150506040518091039020878760405180838380828437808301925050509250505060405180910390201415613bf95780838381518110613be457fe5b60200260200101818152505081806001019250505b8080600101915050613b2d565b829450505050505b92915050565b6000600460008473ffffffffffffffffffffffffffffffffffffffff1673ffffffffffffffffffffffffffffffffffffffff16815260200190815260200160002060008373ffffffffffffffffffffffffffffffffffffffff1673ffffffffffffffffffffffffffffffffffffffff16815260200190815260200160002060009054906101000a900460ff16905092915050565b81613cb281612677565b73ffffffffffffffffffffffffffffffffffffffff163373ffffffffffffffffffffffffffffffffffffffff1614613d52576040517f08c379a00000000000000000000000000000000000000000000000000000000081526004018080602001828103825260158152602001807f796f75206d75737420626520746865206f776e6572000000000000000000000081525060200191505060405180910390fd5b81600e600085815260200190815260200160002060040160146101000a81548160ff021916908315150217905550505050565b600d60149054906101000a900460ff161580613dd35750613da4612e02565b73ffffffffffffffffffffffffffffffffffffffff163373ffffffffffffffffffffffffffffffffffffffff16145b613ddc57600080fd5b80600e600082815260200190815260200160002060040160009054906101000a900473ffffffffffffffffffffffffffffffffffffffff1673ffffffffffffffffffffffffffffffffffffffff163373ffffffffffffffffffffffffffffffffffffffff1614613e4b57600080fd5b600e6000838152602001908152602001600020600201544211613ed6576040517f08c379a000000000000000000000000000000000000000000000000000000000815260040180806020018281038252601d8152602001807f596f75206e65656420746f20776169742074686520646561646c696e6500000081525060200191505060405180910390fd5b6000613ee183612677565b9050613eee8133856147af565b50505050565b613efc612e2c565b613f6e576040517f08c379a00000000000000000000000000000000000000000000000000000000081526004018080602001828103825260208152602001807f4f776e61626c653a2063616c6c6572206973206e6f7420746865206f776e657281525060200191505060405180910390fd5b613f778161485d565b50565b60011515600f60003373ffffffffffffffffffffffffffffffffffffffff1673ffffffffffffffffffffffffffffffffffffffff16815260200190815260200160002060040160009054906101000a900460ff16151514614043576040517f08c379a000000000000000000000000000000000000000000000000000000000815260040180806020018281038252600b8152602001807f6e6f7420616c6c6f77656400000000000000000000000000000000000000000081525060200191505060405180910390fd5b600d60149054906101000a900460ff1615806140915750614062612e02565b73ffffffffffffffffffffffffffffffffffffffff163373ffffffffffffffffffffffffffffffffffffffff16145b61409a57600080fd5b6140a2615841565b6040518060e001604052808a81526020018981526020018881526020014281526020013373ffffffffffffffffffffffffffffffffffffffff16815260200160011515815260200184848080601f016020809104026020016040519081016040528093929190818152602001838380828437600081840152601f19601f82011690508083019250505050505050815250905080600e60008881526020019081526020016000206000820151816000015560208201518160010155604082015181600201556060820151816003015560808201518160040160006101000a81548173ffffffffffffffffffffffffffffffffffffffff021916908373ffffffffffffffffffffffffffffffffffffffff16021790555060a08201518160040160146101000a81548160ff02191690831515021790555060c08201518160050190805190602001906141f39291906157c1565b5090505061420133876149a3565b61424f8686868080601f016020809104026020016040519081016040528093929190818152602001838380828437600081840152601f19601f820116905080830192505050505050506149c1565b60108383604051808383808284378083019250505092505050908152602001604051809103902060008154809291906001019190505550505050505050505050565b600e6020528060005260406000206000915090508060000154908060010154908060020154908060030154908060040160009054906101000a900473ffffffffffffffffffffffffffffffffffffffff16908060040160149054906101000a900460ff1690806005018054600181600116156101000203166002900480601f01602080910402602001604051908101604052809291908181526020018280546001816001161561010002031660029004801561438e5780601f106143635761010080835404028352916020019161438e565b820191906000526020600020905b81548152906001019060200180831161437157829003601f168201915b5050505050905087565b600f602052806000526040600020600091509050806000015490806001018054600181600116156101000203166002900480601f01602080910402602001604051908101604052809291908181526020018280546001816001161561010002031660029004801561444a5780601f1061441f5761010080835404028352916020019161444a565b820191906000526020600020905b81548152906001019060200180831161442d57829003601f168201915b505050505090806002018054600181600116156101000203166002900480601f0160208091040260200160405190810160405280929190818152602001828054600181600116156101000203166002900480156144e85780601f106144bd576101008083540402835291602001916144e8565b820191906000526020600020905b8154815290600101906020018083116144cb57829003601f168201915b505050505090806003018054600181600116156101000203166002900480601f0160208091040260200160405190810160405280929190818152602001828054600181600116156101000203166002900480156145865780601f1061455b57610100808354040283529160200191614586565b820191906000526020600020905b81548152906001019060200180831161456957829003601f168201915b5050505050908060040160009054906101000a900460ff1690806005018054600181600116156101000203166002900480601f0160208091040260200160405190810160405280929190818152602001828054600181600116156101000203166002900480156146375780601f1061460c57610100808354040283529160200191614637565b820191906000526020600020905b81548152906001019060200180831161461a57829003601f168201915b5050505050905086565b6000806001600084815260200190815260200160002060009054906101000a900473ffffffffffffffffffffffffffffffffffffffff169050600073ffffffffffffffffffffffffffffffffffffffff168173ffffffffffffffffffffffffffffffffffffffff161415915050919050565b600033905090565b60006146c682614641565b61471b576040517f08c379a000000000000000000000000000000000000000000000000000000000815260040180806020018281038252602c815260200180615a39602c913960400191505060405180910390fd5b600061472683612677565b90508073ffffffffffffffffffffffffffffffffffffffff168473ffffffffffffffffffffffffffffffffffffffff16148061479557508373ffffffffffffffffffffffffffffffffffffffff1661477d84611a54565b73ffffffffffffffffffffffffffffffffffffffff16145b806147a657506147a58185613c14565b5b91505092915050565b6147ba838383614a4b565b6147c48382614ca6565b6147ce8282614e44565b505050565b600081600001549050919050565b6000819050919050565b6147f68484846147af565b61480284848484614f0b565b614857576040517f08c379a00000000000000000000000000000000000000000000000000000000081526004018080602001828103825260328152602001806159936032913960400191505060405180910390fd5b50505050565b600073ffffffffffffffffffffffffffffffffffffffff168173ffffffffffffffffffffffffffffffffffffffff1614156148e3576040517f08c379a00000000000000000000000000000000000000000000000000000000081526004018080602001828103825260268152602001806159c56026913960400191505060405180910390fd5b8073ffffffffffffffffffffffffffffffffffffffff16600d60009054906101000a900473ffffffffffffffffffffffffffffffffffffffff1673ffffffffffffffffffffffffffffffffffffffff167f8be0079c531659141344cd1fd0a4f28419497f9722a3daafe3b4186f6b6457e060405160405180910390a380600d60006101000a81548173ffffffffffffffffffffffffffffffffffffffff021916908373ffffffffffffffffffffffffffffffffffffffff16021790555050565b6149bd828260405180602001604052806000815250615247565b5050565b6149ca82614641565b614a1f576040517f08c379a000000000000000000000000000000000000000000000000000000000815260040180806020018281038252602c815260200180615b1c602c913960400191505060405180910390fd5b80600c60008481526020019081526020016000209080519060200190614a46929190615896565b505050565b8273ffffffffffffffffffffffffffffffffffffffff16614a6b82612677565b73ffffffffffffffffffffffffffffffffffffffff1614614ad7576040517f08c379a0000000000000000000000000000000000000000000000000000000008152600401808060200182810382526029815260200180615b486029913960400191505060405180910390fd5b600073ffffffffffffffffffffffffffffffffffffffff168273ffffffffffffffffffffffffffffffffffffffff161415614b5d576040517f08c379a00000000000000000000000000000000000000000000000000000000081526004018080602001828103825260248152602001806159eb6024913960400191505060405180910390fd5b614b66816152b8565b614bad600360008573ffffffffffffffffffffffffffffffffffffffff1673ffffffffffffffffffffffffffffffffffffffff168152602001908152602001600020615376565b614bf4600360008473ffffffffffffffffffffffffffffffffffffffff1673ffffffffffffffffffffffffffffffffffffffff168152602001908152602001600020615399565b816001600083815260200190815260200160002060006101000a81548173ffffffffffffffffffffffffffffffffffffffff021916908373ffffffffffffffffffffffffffffffffffffffff160217905550808273ffffffffffffffffffffffffffffffffffffffff168473ffffffffffffffffffffffffffffffffffffffff167fddf252ad1be2c89b69c2b068fc378daa952ba7f163c4a11628f55a4df523b3ef60405160405180910390a4505050565b6000614cfe6001600560008673ffffffffffffffffffffffffffffffffffffffff1673ffffffffffffffffffffffffffffffffffffffff168152602001908152602001600020805490506153af90919063ffffffff16565b9050600060066000848152602001908152602001600020549050818114614deb576000600560008673ffffffffffffffffffffffffffffffffffffffff1673ffffffffffffffffffffffffffffffffffffffff1681526020019081526020016000208381548110614d6b57fe5b9060005260206000200154905080600560008773ffffffffffffffffffffffffffffffffffffffff1673ffffffffffffffffffffffffffffffffffffffff1681526020019081526020016000208381548110614dc357fe5b9060005260206000200181905550816006600083815260200190815260200160002081905550505b600560008573ffffffffffffffffffffffffffffffffffffffff1673ffffffffffffffffffffffffffffffffffffffff168152602001908152602001600020805480919060019003614e3d9190615916565b5050505050565b600560008373ffffffffffffffffffffffffffffffffffffffff1673ffffffffffffffffffffffffffffffffffffffff168152602001908152602001600020805490506006600083815260200190815260200160002081905550600560008373ffffffffffffffffffffffffffffffffffffffff1673ffffffffffffffffffffffffffffffffffffffff1681526020019081526020016000208190806001815401808255809150509060018203906000526020600020016000909192909190915055505050565b6000614f2c8473ffffffffffffffffffffffffffffffffffffffff166153f9565b614f39576001905061523f565b600060608573ffffffffffffffffffffffffffffffffffffffff168673ffffffffffffffffffffffffffffffffffffffff1663150b7a02905060e01b614f7d6146b3565b898888604051602401808573ffffffffffffffffffffffffffffffffffffffff1673ffffffffffffffffffffffffffffffffffffffff1681526020018473ffffffffffffffffffffffffffffffffffffffff1673ffffffffffffffffffffffffffffffffffffffff16815260200183815260200180602001828103825283818151815260200191508051906020019080838360005b8381101561502d578082015181840152602081019050615012565b50505050905090810190601f16801561505a5780820380516001836020036101000a031916815260200191505b5095505050505050604051602081830303815290604052907bffffffffffffffffffffffffffffffffffffffffffffffffffffffff19166020820180517bffffffffffffffffffffffffffffffffffffffffffffffffffffffff83818316178352505050506040518082805190602001908083835b602083106150f257805182526020820191506020810190506020830392506150cf565b6001836020036101000a0380198251168184511680821785525050505050509050019150506000604051808303816000865af19150503d8060008114615154576040519150601f19603f3d011682016040523d82523d6000602084013e615159565b606091505b5091509150816151c7576000815111156151765780518082602001fd5b6040517f08c379a00000000000000000000000000000000000000000000000000000000081526004018080602001828103825260328152602001806159936032913960400191505060405180910390fd5b60008180602001905160208110156151de57600080fd5b8101908080519060200190929190505050905063150b7a0260e01b7bffffffffffffffffffffffffffffffffffffffffffffffffffffffff1916817bffffffffffffffffffffffffffffffffffffffffffffffffffffffff19161493505050505b949350505050565b6152518383615444565b61525e6000848484614f0b565b6152b3576040517f08c379a00000000000000000000000000000000000000000000000000000000081526004018080602001828103825260328152602001806159936032913960400191505060405180910390fd5b505050565b600073ffffffffffffffffffffffffffffffffffffffff166002600083815260200190815260200160002060009054906101000a900473ffffffffffffffffffffffffffffffffffffffff1673ffffffffffffffffffffffffffffffffffffffff16146153735760006002600083815260200190815260200160002060006101000a81548173ffffffffffffffffffffffffffffffffffffffff021916908373ffffffffffffffffffffffffffffffffffffffff1602179055505b50565b61538e600182600001546153af90919063ffffffff16565b816000018190555050565b6001816000016000828254019250508190555050565b60006153f183836040518060400160405280601e81526020017f536166654d6174683a207375627472616374696f6e206f766572666c6f770000815250615465565b905092915050565b60008060007fc5d2460186f7233c927e7db2dcc703c0e500b653ca82273b7bfad8045d85a47060001b9050833f915080821415801561543b57506000801b8214155b92505050919050565b61544e8282615525565b6154588282614e44565b6154618161573d565b5050565b6000838311158290615512576040517f08c379a00000000000000000000000000000000000000000000000000000000081526004018080602001828103825283818151815260200191508051906020019080838360005b838110156154d75780820151818401526020810190506154bc565b50505050905090810190601f1680156155045780820380516001836020036101000a031916815260200191505b509250505060405180910390fd5b5060008385039050809150509392505050565b600073ffffffffffffffffffffffffffffffffffffffff168273ffffffffffffffffffffffffffffffffffffffff1614156155c8576040517f08c379a00000000000000000000000000000000000000000000000000000000081526004018080602001828103825260208152602001807f4552433732313a206d696e7420746f20746865207a65726f206164647265737381525060200191505060405180910390fd5b6155d181614641565b15615644576040517f08c379a000000000000000000000000000000000000000000000000000000000815260040180806020018281038252601c8152602001807f4552433732313a20746f6b656e20616c7265616479206d696e7465640000000081525060200191505060405180910390fd5b816001600083815260200190815260200160002060006101000a81548173ffffffffffffffffffffffffffffffffffffffff021916908373ffffffffffffffffffffffffffffffffffffffff1602179055506156dd600360008473ffffffffffffffffffffffffffffffffffffffff1673ffffffffffffffffffffffffffffffffffffffff168152602001908152602001600020615399565b808273ffffffffffffffffffffffffffffffffffffffff16600073ffffffffffffffffffffffffffffffffffffffff167fddf252ad1be2c89b69c2b068fc378daa952ba7f163c4a11628f55a4df523b3ef60405160405180910390a45050565b6007805490506008600083815260200190815260200160002081905550600781908060018154018082558091505090600182039060005260206000200160009091929091909150555050565b6040518060c0016040528060008152602001606081526020016060815260200160608152602001600015158152602001606081525090565b828054600181600116156101000203166002900490600052602060002090601f016020900481019282601f1061580257805160ff1916838001178555615830565b82800160010185558215615830579182015b8281111561582f578251825591602001919060010190615814565b5b50905061583d9190615942565b5090565b6040518060e0016040528060008152602001600081526020016000815260200160008152602001600073ffffffffffffffffffffffffffffffffffffffff168152602001600015158152602001606081525090565b828054600181600116156101000203166002900490600052602060002090601f016020900481019282601f106158d757805160ff1916838001178555615905565b82800160010185558215615905579182015b828111156159045782518255916020019190600101906158e9565b5b5090506159129190615942565b5090565b81548183558181111561593d5781836000526020600020918201910161593c9190615942565b5b505050565b61596491905b80821115615960576000816000905550600101615948565b5090565b9056fe455243373231456e756d657261626c653a206f776e657220696e646578206f7574206f6620626f756e64734552433732313a207472616e7366657220746f206e6f6e20455243373231526563656976657220696d706c656d656e7465724f776e61626c653a206e6577206f776e657220697320746865207a65726f20616464726573734552433732313a207472616e7366657220746f20746865207a65726f2061646472657373596f75206e65656420746f2073656e642074686520657861637420616d6f756e74206f662045746865724552433732313a206f70657261746f7220717565727920666f72206e6f6e6578697374656e7420746f6b656e4552433732313a20617070726f76652063616c6c6572206973206e6f74206f776e6572206e6f7220617070726f76656420666f7220616c6c4552433732313a2062616c616e636520717565727920666f7220746865207a65726f20616464726573734552433732313a206f776e657220717565727920666f72206e6f6e6578697374656e7420746f6b656e4552433732313a20617070726f76656420717565727920666f72206e6f6e6578697374656e7420746f6b656e4552433732314d657461646174613a2055524920736574206f66206e6f6e6578697374656e7420746f6b656e4552433732313a207472616e73666572206f6620746f6b656e2074686174206973206e6f74206f776e4552433732314d657461646174613a2055524920717565727920666f72206e6f6e6578697374656e7420746f6b656e4552433732313a20617070726f76616c20746f2063757272656e74206f776e65724552433732313a207472616e736665722063616c6c6572206973206e6f74206f776e6572206e6f7220617070726f766564455243373231456e756d657261626c653a20676c6f62616c20696e646578206f7574206f6620626f756e6473a265627a7a72315820e3840bfe346907a5323f0784eb78055847fec8a271acb62cac49d12d3617ecce64736f6c63430005100032",
  "source": "pragma solidity ^0.5.0;\n\nimport \"@openzeppelin/contracts/token/ERC721/ERC721Full.sol\";\nimport \"@openzeppelin/contracts/token/ERC721/ERC721Mintable.sol\";\n\nimport \"./Pausable.sol\";\n\n\n\ncontract Coupoken is ERC721Full, Pausable {\n\n\n  constructor() ERC721Full(\"Coupoken\", \"CPK\") public {}\n\n\n  mapping(uint256 => Coupon) public tokenIdToCouponInfo;\n  mapping(address => Merchant) public addressToMerchant;\n  mapping(string => uint256) private tokenCategoryCounter;\n\n  address[] public merchantList;\n\n\n  function getMerchantList() external view returns (address[] memory) {\n    return merchantList;\n  }\n\n\n  struct Merchant {\n    uint256 createdAt;\n    string name;\n    string category;\n    string websiteUrl;\n    bool enabled;\n    string merchantURI;\n\n  }\n\n  struct Coupon {\n        uint256 discountSize;\n        uint256 price;\n        uint256 deadline;\n        uint256 createdAt;\n        address merchantAdr;\n        bool tradable;\n        string category;\n    }\n\n  modifier isCouponMerchantOwner(uint256 _tokenId) {\n    require(msg.sender == tokenIdToCouponInfo[_tokenId].merchantAdr && msg.sender == ownerOf(_tokenId));\n    _;\n  }\n\n  modifier isCouponMerchant(uint256 _tokenId) {\n    require(msg.sender == tokenIdToCouponInfo[_tokenId].merchantAdr);\n    _;\n  }\n\n  modifier isCouponTradable(uint256 _tokenId) {\n    require(tokenIdToCouponInfo[_tokenId].tradable == true, \"token locked\");\n    _;\n  }\n\n  modifier isCouponOwner (uint256 _tokenId) {\n    require(msg.sender == ownerOf(_tokenId), \"you must be the owner\");\n    _;\n  }\n\n  modifier isMerchantExistent() {\n    require(addressToMerchant[msg.sender].createdAt == 0, \"Duplicates not allowed\");\n    _;\n  }\n\n  modifier isMerchantEnabled() {\n    require(addressToMerchant[msg.sender].enabled == true, \"not allowed\");\n    _;\n  }\n\n  function createMerchant(\n    string calldata _name,\n    string calldata _category,\n    string calldata _websiteUrl,\n    string calldata _merchantURI\n  )\n    external\n    isMerchantExistent\n    whenNotPaused\n  {\n    Merchant memory newMerchant= Merchant(now, _name, _category, _websiteUrl, true, _merchantURI);\n    addressToMerchant[msg.sender] = newMerchant;\n    merchantList.push(msg.sender);\n  }\n\n\n\n  function createCoupon(\n    uint256 _discountSize,\n    uint256 _price,\n    uint256 _deadline,\n    uint256 _tokenId,\n    string  calldata _tokenURI,\n    string  calldata _category\n  )\n    external\n    isMerchantEnabled\n    whenNotPaused\n  {\n      Coupon memory newCoupon = Coupon(_discountSize, _price, _deadline, now, msg.sender, true, _category);\n      tokenIdToCouponInfo[_tokenId] = newCoupon;\n      _safeMint(msg.sender, _tokenId);\n      _setTokenURI(_tokenId, _tokenURI);\n      tokenCategoryCounter[_category]++;\n  }\n\n  function transferCoupon(address _target, uint256 _tokenId) public whenNotPaused isCouponOwner(_tokenId) {\n       _transferFrom(msg.sender, _target, _tokenId);\n   }\n\n\n  function toggleLockCoupon(uint256 _tokenId, bool _tradable)\n    external\n    isCouponOwner(_tokenId)\n  {\n    tokenIdToCouponInfo[_tokenId].tradable = _tradable;\n  }\n\n  function setPriceCoupon(uint256 _tokenId, uint256 _price)\n    external\n    isCouponOwner(_tokenId)\n  {\n    tokenIdToCouponInfo[_tokenId].price = _price;\n  }\n\n  function setDeadlineCoupon(uint256 _tokenId, uint256 _deadline)\n    external\n    isCouponMerchantOwner(_tokenId)\n  {\n    tokenIdToCouponInfo[_tokenId].deadline = _deadline;\n  }\n\n\n  function claimBackCoupon(address _target, uint256 _tokenId) external whenNotPaused isCouponMerchant(_tokenId) {\n        require(now > tokenIdToCouponInfo[_tokenId].deadline, \"You need to wait the deadline\");\n        address ownerAddress = ownerOf(_tokenId);\n        _transferFrom(ownerAddress,  msg.sender, _tokenId);\n   }\n\n\n  function getCouponInfo (uint _tokenId) external view returns (\n    uint256 discountSize,\n    uint256 price,\n    uint256 deadline,\n    uint256 createdAt,\n    address merchantAdr,\n    bool tradable,\n    string memory _category\n      ) {\n      return (\n        tokenIdToCouponInfo[_tokenId].discountSize,\n        tokenIdToCouponInfo[_tokenId].price,\n        tokenIdToCouponInfo[_tokenId].deadline,\n        tokenIdToCouponInfo[_tokenId].createdAt,\n        tokenIdToCouponInfo[_tokenId].merchantAdr,\n        tokenIdToCouponInfo[_tokenId].tradable,\n        tokenIdToCouponInfo[_tokenId].category\n      );\n  }\n\n  function getMerchantInfo (address _merchantAdr) external view returns (\n    uint256 createdAt,\n    string memory merchantName,\n    string memory category,\n    string memory websiteUrl,\n    bool enabled,\n    string memory merchantURI\n      ) {\n      return (\n        addressToMerchant[_merchantAdr].createdAt,\n        addressToMerchant[_merchantAdr].name,\n        addressToMerchant[_merchantAdr].category,\n        addressToMerchant[_merchantAdr].websiteUrl,\n        addressToMerchant[_merchantAdr].enabled,\n        addressToMerchant[_merchantAdr].merchantURI\n      );\n  }\n\n  function _make_payable(address x) internal pure returns (address payable) {\n       return address(uint160(x));\n   }\n\n   function buyCoupon(uint256 _tokenId) external  payable {\n       address ownerAddress = ownerOf(_tokenId);\n       require(tokenIdToCouponInfo[_tokenId].tradable, \"Tradable not enabled\");\n       require(msg.value == tokenIdToCouponInfo[_tokenId].price, \"You need to send the exact amount of Ether\");\n       _transferFrom(ownerAddress,  msg.sender, _tokenId);\n       address payable ownerAddressPayable = _make_payable(ownerAddress);\n       ownerAddressPayable.transfer(tokenIdToCouponInfo[_tokenId].price);\n       tokenIdToCouponInfo[_tokenId].tradable = false;\n   }\n\n\n   function tokensOfOwner(address _owner) external view returns(uint256[] memory ownerTokens) {\n        uint256 tokenCount = balanceOf(_owner);\n\n        if (tokenCount == 0) {\n            return new uint256[](0);\n        } else {\n            uint256[] memory result = new uint256[](tokenCount);\n            uint256 totalCoupons = totalSupply();\n            uint256 resultIndex = 0;\n            uint256 couponId;\n\n            for (couponId = 1; couponId <= totalCoupons; couponId++) {\n                if (ownerOf(couponId) == _owner) {\n                    result[resultIndex] = couponId;\n                    resultIndex++;\n                }\n            }\n\n            return result;\n        }\n      }\n\n    function tokensOfCategory(string calldata _category) external view returns(uint256[] memory ownerTokens) {\n        uint256 totalCoupons = totalSupply();\n         if (totalCoupons == 0) {\n             return new uint256[](0);\n         } else {\n             uint256[] memory result = new uint256[](tokenCategoryCounter[_category]);\n             uint256 resultIndex = 0;\n             uint256 couponId;\n\n             for (couponId = 1; couponId <= totalCoupons; couponId++) {\n                 if (keccak256(bytes(_category)) == keccak256(bytes(tokenIdToCouponInfo[couponId].category))) {\n                     result[resultIndex] = couponId;\n                     resultIndex++;\n                 }\n             }\n             return result;\n         }\n       }\n\n}\n",
  "sourcePath": "/home/thorrwulf/Desktop/ethereum-coupoken/contracts/Coupoken.sol",
  "compiler": {
    "name": "solc",
    "version": "0.5.16+commit.9c3226ce.Emscripten.clang"
  },
  "schemaVersion": "3.1.0",
  "updatedAt": "2020-05-28T13:15:29.875Z",
  "networkType": "ethereum",
  "devdoc": {
    "methods": {
      "approve(address,uint256)": {
        "details": "Approves another address to transfer the given token ID The zero address indicates there is no approved address. There can only be one approved address per token at a given time. Can only be called by the token owner or an approved operator.",
        "params": {
          "to": "address to be approved for the given token ID",
          "tokenId": "uint256 ID of the token to be approved"
        }
      },
      "balanceOf(address)": {
        "details": "Gets the balance of the specified address.",
        "params": {
          "owner": "address to query the balance of"
        },
        "return": "uint256 representing the amount owned by the passed address"
      },
      "baseURI()": {
        "details": "Returns the base URI set via {_setBaseURI}. This will be automatically added as a preffix in {tokenURI} to each token's URI, when they are non-empty.    * _Available since v2.5.0._"
      },
      "getApproved(uint256)": {
        "details": "Gets the approved address for a token ID, or zero if no address set Reverts if the token ID does not exist.",
        "params": {
          "tokenId": "uint256 ID of the token to query the approval of"
        },
        "return": "address currently approved for the given token ID"
      },
      "isApprovedForAll(address,address)": {
        "details": "Tells whether an operator is approved by a given owner.",
        "params": {
          "operator": "operator address which you want to query the approval of",
          "owner": "owner address which you want to query the approval of"
        },
        "return": "bool whether the given operator is approved by the given owner"
      },
      "isOwner()": {
        "details": "Returns true if the caller is the current owner."
      },
      "name()": {
        "details": "Gets the token name.",
        "return": "string representing the token name"
      },
      "notPausable()": {
        "details": "Prevent the token from ever being paused again*"
      },
      "owner()": {
        "details": "Returns the address of the current owner."
      },
      "ownerOf(uint256)": {
        "details": "Gets the owner of the specified token ID.",
        "params": {
          "tokenId": "uint256 ID of the token to query the owner of"
        },
        "return": "address currently marked as the owner of the given token ID"
      },
      "pause()": {
        "details": "called by the owner to pause, triggers stopped state*"
      },
      "renounceOwnership()": {
        "details": "Leaves the contract without owner. It will not be possible to call `onlyOwner` functions anymore. Can only be called by the current owner.     * NOTE: Renouncing ownership will leave the contract without an owner, thereby removing any functionality that is only available to the owner."
      },
      "safeTransferFrom(address,address,uint256)": {
        "details": "Safely transfers the ownership of a given token ID to another address If the target address is a contract, it must implement {IERC721Receiver-onERC721Received}, which is called upon a safe transfer, and return the magic value `bytes4(keccak256(\"onERC721Received(address,address,uint256,bytes)\"))`; otherwise, the transfer is reverted. Requires the msg.sender to be the owner, approved, or operator",
        "params": {
          "from": "current owner of the token",
          "to": "address to receive the ownership of the given token ID",
          "tokenId": "uint256 ID of the token to be transferred"
        }
      },
      "safeTransferFrom(address,address,uint256,bytes)": {
        "details": "Safely transfers the ownership of a given token ID to another address If the target address is a contract, it must implement {IERC721Receiver-onERC721Received}, which is called upon a safe transfer, and return the magic value `bytes4(keccak256(\"onERC721Received(address,address,uint256,bytes)\"))`; otherwise, the transfer is reverted. Requires the _msgSender() to be the owner, approved, or operator",
        "params": {
          "_data": "bytes data to send along with a safe transfer check",
          "from": "current owner of the token",
          "to": "address to receive the ownership of the given token ID",
          "tokenId": "uint256 ID of the token to be transferred"
        }
      },
      "setApprovalForAll(address,bool)": {
        "details": "Sets or unsets the approval of a given operator An operator is allowed to transfer all tokens of the sender on their behalf.",
        "params": {
          "approved": "representing the status of the approval to be set",
          "to": "operator address to set the approval"
        }
      },
      "supportsInterface(bytes4)": {
        "details": "See {IERC165-supportsInterface}.     * Time complexity O(1), guaranteed to always use less than 30 000 gas."
      },
      "symbol()": {
        "details": "Gets the token symbol.",
        "return": "string representing the token symbol"
      },
      "tokenByIndex(uint256)": {
        "details": "Gets the token ID at a given index of all the tokens in this contract Reverts if the index is greater or equal to the total number of tokens.",
        "params": {
          "index": "uint256 representing the index to be accessed of the tokens list"
        },
        "return": "uint256 token ID at the given index of the tokens list"
      },
      "tokenOfOwnerByIndex(address,uint256)": {
        "details": "Gets the token ID at a given index of the tokens list of the requested owner.",
        "params": {
          "index": "uint256 representing the index to be accessed of the requested tokens list",
          "owner": "address owning the tokens list to be accessed"
        },
        "return": "uint256 token ID at the given index of the tokens list owned by the requested address"
      },
      "tokenURI(uint256)": {
        "details": "Returns the URI for a given token ID. May return an empty string.     * If the token's URI is non-empty and a base URI was set (via {_setBaseURI}), it will be added to the token ID's URI as a prefix.     * Reverts if the token ID does not exist."
      },
      "totalSupply()": {
        "details": "Gets the total amount of tokens stored by the contract.",
        "return": "uint256 representing the total amount of tokens"
      },
      "transferFrom(address,address,uint256)": {
        "details": "Transfers the ownership of a given token ID to another address. Usage of this method is discouraged, use {safeTransferFrom} whenever possible. Requires the msg.sender to be the owner, approved, or operator.",
        "params": {
          "from": "current owner of the token",
          "to": "address to receive the ownership of the given token ID",
          "tokenId": "uint256 ID of the token to be transferred"
        }
      },
      "transferOwnership(address)": {
        "details": "Transfers ownership of the contract to a new account (`newOwner`). Can only be called by the current owner."
      },
      "unpause()": {
        "details": "called by the owner to unpause, returns to normal state"
      }
    }
  },
  "userdoc": {
    "methods": {}
  }
}