{
  "contractName": "Coupoken",
  "abi": [
    {
      "inputs": [],
      "payable": false,
      "stateMutability": "nonpayable",
      "type": "constructor"
    },
    {
      "anonymous": false,
      "inputs": [
        {
          "indexed": true,
          "internalType": "address",
          "name": "owner",
          "type": "address"
        },
        {
          "indexed": true,
          "internalType": "address",
          "name": "approved",
          "type": "address"
        },
        {
          "indexed": true,
          "internalType": "uint256",
          "name": "tokenId",
          "type": "uint256"
        }
      ],
      "name": "Approval",
      "type": "event"
    },
    {
      "anonymous": false,
      "inputs": [
        {
          "indexed": true,
          "internalType": "address",
          "name": "owner",
          "type": "address"
        },
        {
          "indexed": true,
          "internalType": "address",
          "name": "operator",
          "type": "address"
        },
        {
          "indexed": false,
          "internalType": "bool",
          "name": "approved",
          "type": "bool"
        }
      ],
      "name": "ApprovalForAll",
      "type": "event"
    },
    {
      "anonymous": false,
      "inputs": [
        {
          "indexed": true,
          "internalType": "address",
          "name": "account",
          "type": "address"
        }
      ],
      "name": "MinterAdded",
      "type": "event"
    },
    {
      "anonymous": false,
      "inputs": [
        {
          "indexed": true,
          "internalType": "address",
          "name": "account",
          "type": "address"
        }
      ],
      "name": "MinterRemoved",
      "type": "event"
    },
    {
      "anonymous": false,
      "inputs": [],
      "name": "NotPausable",
      "type": "event"
    },
    {
      "anonymous": false,
      "inputs": [
        {
          "indexed": true,
          "internalType": "address",
          "name": "previousOwner",
          "type": "address"
        },
        {
          "indexed": true,
          "internalType": "address",
          "name": "newOwner",
          "type": "address"
        }
      ],
      "name": "OwnershipTransferred",
      "type": "event"
    },
    {
      "anonymous": false,
      "inputs": [],
      "name": "Pause",
      "type": "event"
    },
    {
      "anonymous": false,
      "inputs": [
        {
          "indexed": true,
          "internalType": "address",
          "name": "from",
          "type": "address"
        },
        {
          "indexed": true,
          "internalType": "address",
          "name": "to",
          "type": "address"
        },
        {
          "indexed": true,
          "internalType": "uint256",
          "name": "tokenId",
          "type": "uint256"
        }
      ],
      "name": "Transfer",
      "type": "event"
    },
    {
      "anonymous": false,
      "inputs": [],
      "name": "Unpause",
      "type": "event"
    },
    {
      "constant": false,
      "inputs": [
        {
          "internalType": "address",
          "name": "account",
          "type": "address"
        }
      ],
      "name": "addMinter",
      "outputs": [],
      "payable": false,
      "stateMutability": "nonpayable",
      "type": "function"
    },
    {
      "constant": true,
      "inputs": [
        {
          "internalType": "address",
          "name": "",
          "type": "address"
        }
      ],
      "name": "addressToMerchant",
      "outputs": [
        {
          "internalType": "uint256",
          "name": "createdAt",
          "type": "uint256"
        },
        {
          "internalType": "string",
          "name": "name",
          "type": "string"
        },
        {
          "internalType": "string",
          "name": "category",
          "type": "string"
        },
        {
          "internalType": "string",
          "name": "websiteUrl",
          "type": "string"
        },
        {
          "internalType": "bool",
          "name": "enabled",
          "type": "bool"
        }
      ],
      "payable": false,
      "stateMutability": "view",
      "type": "function"
    },
    {
      "constant": false,
      "inputs": [
        {
          "internalType": "address",
          "name": "to",
          "type": "address"
        },
        {
          "internalType": "uint256",
          "name": "tokenId",
          "type": "uint256"
        }
      ],
      "name": "approve",
      "outputs": [],
      "payable": false,
      "stateMutability": "nonpayable",
      "type": "function"
    },
    {
      "constant": true,
      "inputs": [
        {
          "internalType": "address",
          "name": "owner",
          "type": "address"
        }
      ],
      "name": "balanceOf",
      "outputs": [
        {
          "internalType": "uint256",
          "name": "",
          "type": "uint256"
        }
      ],
      "payable": false,
      "stateMutability": "view",
      "type": "function"
    },
    {
      "constant": true,
      "inputs": [],
      "name": "baseURI",
      "outputs": [
        {
          "internalType": "string",
          "name": "",
          "type": "string"
        }
      ],
      "payable": false,
      "stateMutability": "view",
      "type": "function"
    },
    {
      "constant": true,
      "inputs": [],
      "name": "canPause",
      "outputs": [
        {
          "internalType": "bool",
          "name": "",
          "type": "bool"
        }
      ],
      "payable": false,
      "stateMutability": "view",
      "type": "function"
    },
    {
      "constant": true,
      "inputs": [
        {
          "internalType": "uint256",
          "name": "tokenId",
          "type": "uint256"
        }
      ],
      "name": "getApproved",
      "outputs": [
        {
          "internalType": "address",
          "name": "",
          "type": "address"
        }
      ],
      "payable": false,
      "stateMutability": "view",
      "type": "function"
    },
    {
      "constant": true,
      "inputs": [
        {
          "internalType": "address",
          "name": "owner",
          "type": "address"
        },
        {
          "internalType": "address",
          "name": "operator",
          "type": "address"
        }
      ],
      "name": "isApprovedForAll",
      "outputs": [
        {
          "internalType": "bool",
          "name": "",
          "type": "bool"
        }
      ],
      "payable": false,
      "stateMutability": "view",
      "type": "function"
    },
    {
      "constant": true,
      "inputs": [
        {
          "internalType": "address",
          "name": "account",
          "type": "address"
        }
      ],
      "name": "isMinter",
      "outputs": [
        {
          "internalType": "bool",
          "name": "",
          "type": "bool"
        }
      ],
      "payable": false,
      "stateMutability": "view",
      "type": "function"
    },
    {
      "constant": true,
      "inputs": [],
      "name": "isOwner",
      "outputs": [
        {
          "internalType": "bool",
          "name": "",
          "type": "bool"
        }
      ],
      "payable": false,
      "stateMutability": "view",
      "type": "function"
    },
    {
      "constant": true,
      "inputs": [
        {
          "internalType": "uint256",
          "name": "",
          "type": "uint256"
        }
      ],
      "name": "merchantList",
      "outputs": [
        {
          "internalType": "address",
          "name": "",
          "type": "address"
        }
      ],
      "payable": false,
      "stateMutability": "view",
      "type": "function"
    },
    {
      "constant": false,
      "inputs": [
        {
          "internalType": "address",
          "name": "to",
          "type": "address"
        },
        {
          "internalType": "uint256",
          "name": "tokenId",
          "type": "uint256"
        }
      ],
      "name": "mint",
      "outputs": [
        {
          "internalType": "bool",
          "name": "",
          "type": "bool"
        }
      ],
      "payable": false,
      "stateMutability": "nonpayable",
      "type": "function"
    },
    {
      "constant": true,
      "inputs": [],
      "name": "myString",
      "outputs": [
        {
          "internalType": "string",
          "name": "",
          "type": "string"
        }
      ],
      "payable": false,
      "stateMutability": "view",
      "type": "function"
    },
    {
      "constant": true,
      "inputs": [],
      "name": "name",
      "outputs": [
        {
          "internalType": "string",
          "name": "",
          "type": "string"
        }
      ],
      "payable": false,
      "stateMutability": "view",
      "type": "function"
    },
    {
      "constant": false,
      "inputs": [],
      "name": "notPausable",
      "outputs": [],
      "payable": false,
      "stateMutability": "nonpayable",
      "type": "function"
    },
    {
      "constant": true,
      "inputs": [],
      "name": "owner",
      "outputs": [
        {
          "internalType": "address",
          "name": "",
          "type": "address"
        }
      ],
      "payable": false,
      "stateMutability": "view",
      "type": "function"
    },
    {
      "constant": true,
      "inputs": [
        {
          "internalType": "uint256",
          "name": "tokenId",
          "type": "uint256"
        }
      ],
      "name": "ownerOf",
      "outputs": [
        {
          "internalType": "address",
          "name": "",
          "type": "address"
        }
      ],
      "payable": false,
      "stateMutability": "view",
      "type": "function"
    },
    {
      "constant": false,
      "inputs": [],
      "name": "pause",
      "outputs": [],
      "payable": false,
      "stateMutability": "nonpayable",
      "type": "function"
    },
    {
      "constant": true,
      "inputs": [],
      "name": "paused",
      "outputs": [
        {
          "internalType": "bool",
          "name": "",
          "type": "bool"
        }
      ],
      "payable": false,
      "stateMutability": "view",
      "type": "function"
    },
    {
      "constant": false,
      "inputs": [],
      "name": "renounceMinter",
      "outputs": [],
      "payable": false,
      "stateMutability": "nonpayable",
      "type": "function"
    },
    {
      "constant": false,
      "inputs": [],
      "name": "renounceOwnership",
      "outputs": [],
      "payable": false,
      "stateMutability": "nonpayable",
      "type": "function"
    },
    {
      "constant": false,
      "inputs": [
        {
          "internalType": "address",
          "name": "to",
          "type": "address"
        },
        {
          "internalType": "uint256",
          "name": "tokenId",
          "type": "uint256"
        },
        {
          "internalType": "bytes",
          "name": "_data",
          "type": "bytes"
        }
      ],
      "name": "safeMint",
      "outputs": [
        {
          "internalType": "bool",
          "name": "",
          "type": "bool"
        }
      ],
      "payable": false,
      "stateMutability": "nonpayable",
      "type": "function"
    },
    {
      "constant": false,
      "inputs": [
        {
          "internalType": "address",
          "name": "to",
          "type": "address"
        },
        {
          "internalType": "uint256",
          "name": "tokenId",
          "type": "uint256"
        }
      ],
      "name": "safeMint",
      "outputs": [
        {
          "internalType": "bool",
          "name": "",
          "type": "bool"
        }
      ],
      "payable": false,
      "stateMutability": "nonpayable",
      "type": "function"
    },
    {
      "constant": false,
      "inputs": [
        {
          "internalType": "address",
          "name": "from",
          "type": "address"
        },
        {
          "internalType": "address",
          "name": "to",
          "type": "address"
        },
        {
          "internalType": "uint256",
          "name": "tokenId",
          "type": "uint256"
        }
      ],
      "name": "safeTransferFrom",
      "outputs": [],
      "payable": false,
      "stateMutability": "nonpayable",
      "type": "function"
    },
    {
      "constant": false,
      "inputs": [
        {
          "internalType": "address",
          "name": "from",
          "type": "address"
        },
        {
          "internalType": "address",
          "name": "to",
          "type": "address"
        },
        {
          "internalType": "uint256",
          "name": "tokenId",
          "type": "uint256"
        },
        {
          "internalType": "bytes",
          "name": "_data",
          "type": "bytes"
        }
      ],
      "name": "safeTransferFrom",
      "outputs": [],
      "payable": false,
      "stateMutability": "nonpayable",
      "type": "function"
    },
    {
      "constant": false,
      "inputs": [
        {
          "internalType": "address",
          "name": "to",
          "type": "address"
        },
        {
          "internalType": "bool",
          "name": "approved",
          "type": "bool"
        }
      ],
      "name": "setApprovalForAll",
      "outputs": [],
      "payable": false,
      "stateMutability": "nonpayable",
      "type": "function"
    },
    {
      "constant": true,
      "inputs": [
        {
          "internalType": "bytes4",
          "name": "interfaceId",
          "type": "bytes4"
        }
      ],
      "name": "supportsInterface",
      "outputs": [
        {
          "internalType": "bool",
          "name": "",
          "type": "bool"
        }
      ],
      "payable": false,
      "stateMutability": "view",
      "type": "function"
    },
    {
      "constant": true,
      "inputs": [],
      "name": "symbol",
      "outputs": [
        {
          "internalType": "string",
          "name": "",
          "type": "string"
        }
      ],
      "payable": false,
      "stateMutability": "view",
      "type": "function"
    },
    {
      "constant": true,
      "inputs": [
        {
          "internalType": "uint256",
          "name": "index",
          "type": "uint256"
        }
      ],
      "name": "tokenByIndex",
      "outputs": [
        {
          "internalType": "uint256",
          "name": "",
          "type": "uint256"
        }
      ],
      "payable": false,
      "stateMutability": "view",
      "type": "function"
    },
    {
      "constant": true,
      "inputs": [
        {
          "internalType": "uint256",
          "name": "",
          "type": "uint256"
        }
      ],
      "name": "tokenIdToCouponInfo",
      "outputs": [
        {
          "internalType": "uint256",
          "name": "discountSize",
          "type": "uint256"
        },
        {
          "internalType": "uint256",
          "name": "price",
          "type": "uint256"
        },
        {
          "internalType": "uint256",
          "name": "deadline",
          "type": "uint256"
        },
        {
          "internalType": "uint256",
          "name": "createdAt",
          "type": "uint256"
        },
        {
          "internalType": "address",
          "name": "merchantAdr",
          "type": "address"
        },
        {
          "internalType": "bool",
          "name": "tradable",
          "type": "bool"
        }
      ],
      "payable": false,
      "stateMutability": "view",
      "type": "function"
    },
    {
      "constant": true,
      "inputs": [
        {
          "internalType": "address",
          "name": "owner",
          "type": "address"
        },
        {
          "internalType": "uint256",
          "name": "index",
          "type": "uint256"
        }
      ],
      "name": "tokenOfOwnerByIndex",
      "outputs": [
        {
          "internalType": "uint256",
          "name": "",
          "type": "uint256"
        }
      ],
      "payable": false,
      "stateMutability": "view",
      "type": "function"
    },
    {
      "constant": true,
      "inputs": [
        {
          "internalType": "uint256",
          "name": "tokenId",
          "type": "uint256"
        }
      ],
      "name": "tokenURI",
      "outputs": [
        {
          "internalType": "string",
          "name": "",
          "type": "string"
        }
      ],
      "payable": false,
      "stateMutability": "view",
      "type": "function"
    },
    {
      "constant": true,
      "inputs": [],
      "name": "totalSupply",
      "outputs": [
        {
          "internalType": "uint256",
          "name": "",
          "type": "uint256"
        }
      ],
      "payable": false,
      "stateMutability": "view",
      "type": "function"
    },
    {
      "constant": false,
      "inputs": [
        {
          "internalType": "address",
          "name": "from",
          "type": "address"
        },
        {
          "internalType": "address",
          "name": "to",
          "type": "address"
        },
        {
          "internalType": "uint256",
          "name": "tokenId",
          "type": "uint256"
        }
      ],
      "name": "transferFrom",
      "outputs": [],
      "payable": false,
      "stateMutability": "nonpayable",
      "type": "function"
    },
    {
      "constant": false,
      "inputs": [
        {
          "internalType": "address",
          "name": "newOwner",
          "type": "address"
        }
      ],
      "name": "transferOwnership",
      "outputs": [],
      "payable": false,
      "stateMutability": "nonpayable",
      "type": "function"
    },
    {
      "constant": false,
      "inputs": [],
      "name": "unpause",
      "outputs": [],
      "payable": false,
      "stateMutability": "nonpayable",
      "type": "function"
    },
    {
      "constant": false,
      "inputs": [
        {
          "internalType": "string",
          "name": "x",
          "type": "string"
        }
      ],
      "name": "set",
      "outputs": [],
      "payable": false,
      "stateMutability": "nonpayable",
      "type": "function"
    },
    {
      "constant": true,
      "inputs": [],
      "name": "getMerchantList",
      "outputs": [
        {
          "internalType": "address[]",
          "name": "",
          "type": "address[]"
        }
      ],
      "payable": false,
      "stateMutability": "view",
      "type": "function"
    },
    {
      "constant": false,
      "inputs": [
        {
          "internalType": "string",
          "name": "_name",
          "type": "string"
        },
        {
          "internalType": "string",
          "name": "_category",
          "type": "string"
        },
        {
          "internalType": "string",
          "name": "_websiteUrl",
          "type": "string"
        }
      ],
      "name": "createMerchant",
      "outputs": [],
      "payable": false,
      "stateMutability": "nonpayable",
      "type": "function"
    },
    {
      "constant": false,
      "inputs": [
        {
          "internalType": "uint256",
          "name": "_discountSize",
          "type": "uint256"
        },
        {
          "internalType": "uint256",
          "name": "_price",
          "type": "uint256"
        },
        {
          "internalType": "uint256",
          "name": "_deadline",
          "type": "uint256"
        },
        {
          "internalType": "uint256",
          "name": "_tokenId",
          "type": "uint256"
        },
        {
          "internalType": "string",
          "name": "_tokenURI",
          "type": "string"
        }
      ],
      "name": "createCoupon",
      "outputs": [],
      "payable": false,
      "stateMutability": "nonpayable",
      "type": "function"
    },
    {
      "constant": false,
      "inputs": [
        {
          "internalType": "address",
          "name": "_target",
          "type": "address"
        },
        {
          "internalType": "uint256",
          "name": "_tokenId",
          "type": "uint256"
        }
      ],
      "name": "transferCoupon",
      "outputs": [],
      "payable": false,
      "stateMutability": "nonpayable",
      "type": "function"
    },
    {
      "constant": false,
      "inputs": [
        {
          "internalType": "uint256",
          "name": "_tokenId",
          "type": "uint256"
        },
        {
          "internalType": "bool",
          "name": "_tradable",
          "type": "bool"
        }
      ],
      "name": "toggleLockCoupon",
      "outputs": [],
      "payable": false,
      "stateMutability": "nonpayable",
      "type": "function"
    },
    {
      "constant": false,
      "inputs": [
        {
          "internalType": "uint256",
          "name": "_tokenId",
          "type": "uint256"
        },
        {
          "internalType": "uint256",
          "name": "_price",
          "type": "uint256"
        }
      ],
      "name": "setPriceCoupon",
      "outputs": [],
      "payable": false,
      "stateMutability": "nonpayable",
      "type": "function"
    },
    {
      "constant": false,
      "inputs": [
        {
          "internalType": "uint256",
          "name": "_tokenId",
          "type": "uint256"
        },
        {
          "internalType": "uint256",
          "name": "_deadline",
          "type": "uint256"
        }
      ],
      "name": "setDeadlineCoupon",
      "outputs": [],
      "payable": false,
      "stateMutability": "nonpayable",
      "type": "function"
    },
    {
      "constant": false,
      "inputs": [
        {
          "internalType": "address",
          "name": "_target",
          "type": "address"
        },
        {
          "internalType": "uint256",
          "name": "_tokenId",
          "type": "uint256"
        }
      ],
      "name": "claimBackCoupon",
      "outputs": [],
      "payable": false,
      "stateMutability": "nonpayable",
      "type": "function"
    },
    {
      "constant": true,
      "inputs": [
        {
          "internalType": "uint256",
          "name": "_tokenId",
          "type": "uint256"
        }
      ],
      "name": "getCouponInfo",
      "outputs": [
        {
          "internalType": "uint256",
          "name": "discountSize",
          "type": "uint256"
        },
        {
          "internalType": "uint256",
          "name": "price",
          "type": "uint256"
        },
        {
          "internalType": "uint256",
          "name": "deadline",
          "type": "uint256"
        },
        {
          "internalType": "uint256",
          "name": "createdAt",
          "type": "uint256"
        },
        {
          "internalType": "address",
          "name": "merchantAdr",
          "type": "address"
        },
        {
          "internalType": "bool",
          "name": "tradable",
          "type": "bool"
        },
        {
          "internalType": "address",
          "name": "actualOwner",
          "type": "address"
        }
      ],
      "payable": false,
      "stateMutability": "view",
      "type": "function"
    },
    {
      "constant": true,
      "inputs": [
        {
          "internalType": "address",
          "name": "_merchantAdr",
          "type": "address"
        }
      ],
      "name": "getMerchantInfo",
      "outputs": [
        {
          "internalType": "uint256",
          "name": "createdAt",
          "type": "uint256"
        },
        {
          "internalType": "string",
          "name": "merchantName",
          "type": "string"
        },
        {
          "internalType": "string",
          "name": "category",
          "type": "string"
        },
        {
          "internalType": "string",
          "name": "websiteUrl",
          "type": "string"
        },
        {
          "internalType": "bool",
          "name": "enabled",
          "type": "bool"
        }
      ],
      "payable": false,
      "stateMutability": "view",
      "type": "function"
    },
    {
      "constant": false,
      "inputs": [
        {
          "internalType": "uint256",
          "name": "_tokenId",
          "type": "uint256"
        }
      ],
      "name": "buyCoupon",
      "outputs": [],
      "payable": true,
      "stateMutability": "payable",
      "type": "function"
    },
    {
      "constant": true,
      "inputs": [
        {
          "internalType": "address",
          "name": "_owner",
          "type": "address"
        }
      ],
      "name": "tokensOfOwner",
      "outputs": [
        {
          "internalType": "uint256[]",
          "name": "ownerTokens",
          "type": "uint256[]"
        }
      ],
      "payable": false,
      "stateMutability": "view",
      "type": "function"
    }
  ],
  "bytecode": "0x60806040526000600e60146101000a81548160ff0219169083151502179055506001600e60156101000a81548160ff0219169083151502179055506040518060400160405280600481526020017f7465737400000000000000000000000000000000000000000000000000000000815250600f908051906020019062000087929190620005a7565b503480156200009557600080fd5b506040518060400160405280600881526020017f436f75706f6b656e0000000000000000000000000000000000000000000000008152506040518060400160405280600381526020017f43504b000000000000000000000000000000000000000000000000000000000081525081816200011c6301ffc9a760e01b6200027160201b60201c565b620001346380ac58cd60e01b6200027160201b60201c565b6200014c63780e9d6360e01b6200027160201b60201c565b816009908051906020019062000164929190620005a7565b5080600a90805190602001906200017d929190620005a7565b5062000196635b5e139f60e01b6200027160201b60201c565b50505050620001ba620001ae6200037a60201b60201c565b6200038260201b60201c565b6000620001cc6200037a60201b60201c565b905080600e60006101000a81548173ffffffffffffffffffffffffffffffffffffffff021916908373ffffffffffffffffffffffffffffffffffffffff1602179055508073ffffffffffffffffffffffffffffffffffffffff16600073ffffffffffffffffffffffffffffffffffffffff167f8be0079c531659141344cd1fd0a4f28419497f9722a3daafe3b4186f6b6457e060405160405180910390a35062000656565b63ffffffff60e01b817bffffffffffffffffffffffffffffffffffffffffffffffffffffffff191614156200030e576040517f08c379a000000000000000000000000000000000000000000000000000000000815260040180806020018281038252601c8152602001807f4552433136353a20696e76616c696420696e746572666163652069640000000081525060200191505060405180910390fd5b6001600080837bffffffffffffffffffffffffffffffffffffffffffffffffffffffff19167bffffffffffffffffffffffffffffffffffffffffffffffffffffffff1916815260200190815260200160002060006101000a81548160ff02191690831515021790555050565b600033905090565b6200039d81600d620003e360201b620055071790919060201c565b8073ffffffffffffffffffffffffffffffffffffffff167f6ae172837ea30b801fbfcdd4108aa1d5bf8ff775444fd70256b44e6bf3dfc3f660405160405180910390a250565b620003f58282620004c760201b60201c565b1562000469576040517f08c379a000000000000000000000000000000000000000000000000000000000815260040180806020018281038252601f8152602001807f526f6c65733a206163636f756e7420616c72656164792068617320726f6c650081525060200191505060405180910390fd5b60018260000160008373ffffffffffffffffffffffffffffffffffffffff1673ffffffffffffffffffffffffffffffffffffffff16815260200190815260200160002060006101000a81548160ff0219169083151502179055505050565b60008073ffffffffffffffffffffffffffffffffffffffff168273ffffffffffffffffffffffffffffffffffffffff16141562000550576040517f08c379a00000000000000000000000000000000000000000000000000000000081526004018080602001828103825260228152602001806200647f6022913960400191505060405180910390fd5b8260000160008373ffffffffffffffffffffffffffffffffffffffff1673ffffffffffffffffffffffffffffffffffffffff16815260200190815260200160002060009054906101000a900460ff16905092915050565b828054600181600116156101000203166002900490600052602060002090601f016020900481019282601f10620005ea57805160ff19168380011785556200061b565b828001600101855582156200061b579182015b828111156200061a578251825591602001919060010190620005fd565b5b5090506200062a91906200062e565b5090565b6200065391905b808211156200064f57600081600090555060010162000635565b5090565b90565b615e1980620006666000396000f3fe6080604052600436106102ae5760003560e01c8063715018a611610175578063a1448194116100dc578063e985e9c511610095578063f2fde38b1161006f578063f2fde38b1461176a578063f71c3019146117bb578063f93226551461185d578063fce173751461194d576102ae565b8063e985e9c51461163f578063eb99c968146116c8578063f2dbe88d1461170f576102ae565b8063a1448194146112fb578063a22cb4651461136e578063aa271e1a146113cb578063b88d4fde14611434578063c755775714611546578063c87b56dd1461158b576102ae565b80638f32d59b1161012e5780638f32d59b146110a457806395d89b41146110d3578063983b2d561461116357806398650275146111b45780639a93aec0146111cb5780639b8909a514611226576102ae565b8063715018a614610e415780638456cb5914610e585780638462151c14610e6f57806386d3ebc714610f155780638832e6e314610f435780638da5cb5b1461104d576102ae565b80633f4ba83a116102195780634f6ccce7116101d25780634f6ccce714610c0e5780635c975abb14610c5d57806362b3642f14610c8c5780636352211e14610cd15780636c0360eb14610d4c57806370a0823114610ddc576102ae565b80633f4ba83a1461099a57806340c10f19146109b157806342842e0e14610a24578063492bfa1814610a9f5780634be8b05e14610b2f5780634ed3885e14610b46576102ae565b806318160ddd1161026b57806318160ddd1461076f5780631b795d561461079a57806323b872dd146108155780632f745c5914610890578063313beb55146108ff578063323be1c51461096b576102ae565b806301ffc9a7146102b357806306fdde0314610325578063081812fc146103b5578063095ea7b3146104305780630b4dc00a1461048b5780630e733ef1146105bb575b600080fd5b3480156102bf57600080fd5b5061030b600480360360208110156102d657600080fd5b8101908080357bffffffffffffffffffffffffffffffffffffffffffffffffffffffff19169060200190929190505050611b01565b604051808215151515815260200191505060405180910390f35b34801561033157600080fd5b5061033a611b68565b6040518080602001828103825283818151815260200191508051906020019080838360005b8381101561037a57808201518184015260208101905061035f565b50505050905090810190601f1680156103a75780820380516001836020036101000a031916815260200191505b509250505060405180910390f35b3480156103c157600080fd5b506103ee600480360360208110156103d857600080fd5b8101908080359060200190929190505050611c0a565b604051808273ffffffffffffffffffffffffffffffffffffffff1673ffffffffffffffffffffffffffffffffffffffff16815260200191505060405180910390f35b34801561043c57600080fd5b506104896004803603604081101561045357600080fd5b81019080803573ffffffffffffffffffffffffffffffffffffffff16906020019092919080359060200190929190505050611ca5565b005b34801561049757600080fd5b506105b9600480360360608110156104ae57600080fd5b81019080803590602001906401000000008111156104cb57600080fd5b8201836020820111156104dd57600080fd5b803590602001918460018302840111640100000000831117156104ff57600080fd5b90919293919293908035906020019064010000000081111561052057600080fd5b82018360208201111561053257600080fd5b8035906020019184600183028401116401000000008311171561055457600080fd5b90919293919293908035906020019064010000000081111561057557600080fd5b82018360208201111561058757600080fd5b803590602001918460018302840111640100000000831117156105a957600080fd5b9091929391929390505050611e8c565b005b3480156105c757600080fd5b5061060a600480360360208110156105de57600080fd5b81019080803573ffffffffffffffffffffffffffffffffffffffff1690602001909291905050506121ce565b6040518086815260200180602001806020018060200185151515158152602001848103845288818151815260200191508051906020019080838360005b83811015610662578082015181840152602081019050610647565b50505050905090810190601f16801561068f5780820380516001836020036101000a031916815260200191505b50848103835287818151815260200191508051906020019080838360005b838110156106c85780820151818401526020810190506106ad565b50505050905090810190601f1680156106f55780820380516001836020036101000a031916815260200191505b50848103825286818151815260200191508051906020019080838360005b8381101561072e578082015181840152602081019050610713565b50505050905090810190601f16801561075b5780820380516001836020036101000a031916815260200191505b509850505050505050505060405180910390f35b34801561077b57600080fd5b50610784612517565b6040518082815260200191505060405180910390f35b3480156107a657600080fd5b506107d3600480360360208110156107bd57600080fd5b8101908080359060200190929190505050612524565b604051808273ffffffffffffffffffffffffffffffffffffffff1673ffffffffffffffffffffffffffffffffffffffff16815260200191505060405180910390f35b34801561082157600080fd5b5061088e6004803603606081101561083857600080fd5b81019080803573ffffffffffffffffffffffffffffffffffffffff169060200190929190803573ffffffffffffffffffffffffffffffffffffffff16906020019092919080359060200190929190505050612560565b005b34801561089c57600080fd5b506108e9600480360360408110156108b357600080fd5b81019080803573ffffffffffffffffffffffffffffffffffffffff169060200190929190803590602001909291905050506125d6565b6040518082815260200191505060405180910390f35b34801561090b57600080fd5b50610914612695565b6040518080602001828103825283818151815260200191508051906020019060200280838360005b8381101561095757808201518184015260208101905061093c565b505050509050019250505060405180910390f35b34801561097757600080fd5b50610980612723565b604051808215151515815260200191505060405180910390f35b3480156109a657600080fd5b506109af612736565b005b3480156109bd57600080fd5b50610a0a600480360360408110156109d457600080fd5b81019080803573ffffffffffffffffffffffffffffffffffffffff16906020019092919080359060200190929190505050612832565b604051808215151515815260200191505060405180910390f35b348015610a3057600080fd5b50610a9d60048036036060811015610a4757600080fd5b81019080803573ffffffffffffffffffffffffffffffffffffffff169060200190929190803573ffffffffffffffffffffffffffffffffffffffff169060200190929190803590602001909291905050506128ad565b005b348015610aab57600080fd5b50610ab46128cd565b6040518080602001828103825283818151815260200191508051906020019080838360005b83811015610af4578082015181840152602081019050610ad9565b50505050905090810190601f168015610b215780820380516001836020036101000a031916815260200191505b509250505060405180910390f35b348015610b3b57600080fd5b50610b4461296b565b005b348015610b5257600080fd5b50610c0c60048036036020811015610b6957600080fd5b8101908080359060200190640100000000811115610b8657600080fd5b820183602082011115610b9857600080fd5b80359060200191846001830284011164010000000083111715610bba57600080fd5b91908080601f016020809104026020016040519081016040528093929190818152602001838380828437600081840152601f19601f820116905080830192505050505050509192919290505050612a49565b005b348015610c1a57600080fd5b50610c4760048036036020811015610c3157600080fd5b8101908080359060200190929190505050612a63565b6040518082815260200191505060405180910390f35b348015610c6957600080fd5b50610c72612ae3565b604051808215151515815260200191505060405180910390f35b348015610c9857600080fd5b50610ccf60048036036040811015610caf57600080fd5b810190808035906020019092919080359060200190929190505050612af6565b005b348015610cdd57600080fd5b50610d0a60048036036020811015610cf457600080fd5b8101908080359060200190929190505050612bc0565b604051808273ffffffffffffffffffffffffffffffffffffffff1673ffffffffffffffffffffffffffffffffffffffff16815260200191505060405180910390f35b348015610d5857600080fd5b50610d61612c88565b6040518080602001828103825283818151815260200191508051906020019080838360005b83811015610da1578082015181840152602081019050610d86565b50505050905090810190601f168015610dce5780820380516001836020036101000a031916815260200191505b509250505060405180910390f35b348015610de857600080fd5b50610e2b60048036036020811015610dff57600080fd5b81019080803573ffffffffffffffffffffffffffffffffffffffff169060200190929190505050612d2a565b6040518082815260200191505060405180910390f35b348015610e4d57600080fd5b50610e56612dff565b005b348015610e6457600080fd5b50610e6d612f3a565b005b348015610e7b57600080fd5b50610ebe60048036036020811015610e9257600080fd5b81019080803573ffffffffffffffffffffffffffffffffffffffff169060200190929190505050613074565b6040518080602001828103825283818151815260200191508051906020019060200280838360005b83811015610f01578082015181840152602081019050610ee6565b505050509050019250505060405180910390f35b610f4160048036036020811015610f2b57600080fd5b8101908080359060200190929190505050613191565b005b348015610f4f57600080fd5b5061103360048036036060811015610f6657600080fd5b81019080803573ffffffffffffffffffffffffffffffffffffffff1690602001909291908035906020019092919080359060200190640100000000811115610fad57600080fd5b820183602082011115610fbf57600080fd5b80359060200191846001830284011164010000000083111715610fe157600080fd5b91908080601f016020809104026020016040519081016040528093929190818152602001838380828437600081840152601f19601f8201169050808301925050505050505091929192905050506132b5565b604051808215151515815260200191505060405180910390f35b34801561105957600080fd5b50611062613332565b604051808273ffffffffffffffffffffffffffffffffffffffff1673ffffffffffffffffffffffffffffffffffffffff16815260200191505060405180910390f35b3480156110b057600080fd5b506110b961335c565b604051808215151515815260200191505060405180910390f35b3480156110df57600080fd5b506110e86133bb565b6040518080602001828103825283818151815260200191508051906020019080838360005b8381101561112857808201518184015260208101905061110d565b50505050905090810190601f1680156111555780820380516001836020036101000a031916815260200191505b509250505060405180910390f35b34801561116f57600080fd5b506111b26004803603602081101561118657600080fd5b81019080803573ffffffffffffffffffffffffffffffffffffffff16906020019092919050505061345d565b005b3480156111c057600080fd5b506111c96134ce565b005b3480156111d757600080fd5b50611224600480360360408110156111ee57600080fd5b81019080803573ffffffffffffffffffffffffffffffffffffffff169060200190929190803590602001909291905050506134e0565b005b34801561123257600080fd5b5061125f6004803603602081101561124957600080fd5b81019080803590602001909291905050506135f1565b604051808881526020018781526020018681526020018581526020018473ffffffffffffffffffffffffffffffffffffffff1673ffffffffffffffffffffffffffffffffffffffff168152602001831515151581526020018273ffffffffffffffffffffffffffffffffffffffff1673ffffffffffffffffffffffffffffffffffffffff16815260200197505050505050505060405180910390f35b34801561130757600080fd5b506113546004803603604081101561131e57600080fd5b81019080803573ffffffffffffffffffffffffffffffffffffffff169060200190929190803590602001909291905050506136d5565b604051808215151515815260200191505060405180910390f35b34801561137a57600080fd5b506113c96004803603604081101561139157600080fd5b81019080803573ffffffffffffffffffffffffffffffffffffffff169060200190929190803515159060200190929190505050613750565b005b3480156113d757600080fd5b5061141a600480360360208110156113ee57600080fd5b81019080803573ffffffffffffffffffffffffffffffffffffffff169060200190929190505050613908565b604051808215151515815260200191505060405180910390f35b34801561144057600080fd5b506115446004803603608081101561145757600080fd5b81019080803573ffffffffffffffffffffffffffffffffffffffff169060200190929190803573ffffffffffffffffffffffffffffffffffffffff16906020019092919080359060200190929190803590602001906401000000008111156114be57600080fd5b8201836020820111156114d057600080fd5b803590602001918460018302840111640100000000831117156114f257600080fd5b91908080601f016020809104026020016040519081016040528093929190818152602001838380828437600081840152601f19601f820116905080830192505050505050509192919290505050613925565b005b34801561155257600080fd5b506115896004803603604081101561156957600080fd5b81019080803590602001909291908035906020019092919050505061399d565b005b34801561159757600080fd5b506115c4600480360360208110156115ae57600080fd5b8101908080359060200190929190505050613a6b565b6040518080602001828103825283818151815260200191508051906020019080838360005b838110156116045780820151818401526020810190506115e9565b50505050905090810190601f1680156116315780820380516001836020036101000a031916815260200191505b509250505060405180910390f35b34801561164b57600080fd5b506116ae6004803603604081101561166257600080fd5b81019080803573ffffffffffffffffffffffffffffffffffffffff169060200190929190803573ffffffffffffffffffffffffffffffffffffffff169060200190929190505050613c6d565b604051808215151515815260200191505060405180910390f35b3480156116d457600080fd5b5061170d600480360360408110156116eb57600080fd5b8101908080359060200190929190803515159060200190929190505050613d01565b005b34801561171b57600080fd5b506117686004803603604081101561173257600080fd5b81019080803573ffffffffffffffffffffffffffffffffffffffff16906020019092919080359060200190929190505050613dde565b005b34801561177657600080fd5b506117b96004803603602081101561178d57600080fd5b81019080803573ffffffffffffffffffffffffffffffffffffffff169060200190929190505050613f4d565b005b3480156117c757600080fd5b506117f4600480360360208110156117de57600080fd5b8101908080359060200190929190505050613fd3565b604051808781526020018681526020018581526020018481526020018373ffffffffffffffffffffffffffffffffffffffff1673ffffffffffffffffffffffffffffffffffffffff16815260200182151515158152602001965050505050505060405180910390f35b34801561186957600080fd5b5061194b600480360360a081101561188057600080fd5b8101908080359060200190929190803590602001909291908035906020019092919080359060200190929190803590602001906401000000008111156118c557600080fd5b8201836020820111156118d757600080fd5b803590602001918460018302840111640100000000831117156118f957600080fd5b91908080601f016020809104026020016040519081016040528093929190818152602001838380828437600081840152601f19601f82011690508083019250505050505050919291929050505061403c565b005b34801561195957600080fd5b5061199c6004803603602081101561197057600080fd5b81019080803573ffffffffffffffffffffffffffffffffffffffff16906020019092919050505061426e565b6040518086815260200180602001806020018060200185151515158152602001848103845288818151815260200191508051906020019080838360005b838110156119f45780820151818401526020810190506119d9565b50505050905090810190601f168015611a215780820380516001836020036101000a031916815260200191505b50848103835287818151815260200191508051906020019080838360005b83811015611a5a578082015181840152602081019050611a3f565b50505050905090810190601f168015611a875780820380516001836020036101000a031916815260200191505b50848103825286818151815260200191508051906020019080838360005b83811015611ac0578082015181840152602081019050611aa5565b50505050905090810190601f168015611aed5780820380516001836020036101000a031916815260200191505b509850505050505050505060405180910390f35b6000806000837bffffffffffffffffffffffffffffffffffffffffffffffffffffffff19167bffffffffffffffffffffffffffffffffffffffffffffffffffffffff1916815260200190815260200160002060009054906101000a900460ff169050919050565b606060098054600181600116156101000203166002900480601f016020809104026020016040519081016040528092919081815260200182805460018160011615610100020316600290048015611c005780601f10611bd557610100808354040283529160200191611c00565b820191906000526020600020905b815481529060010190602001808311611be357829003601f168201915b5050505050905090565b6000611c1582614479565b611c6a576040517f08c379a000000000000000000000000000000000000000000000000000000000815260040180806020018281038252602c815260200180615c95602c913960400191505060405180910390fd5b6002600083815260200190815260200160002060009054906101000a900473ffffffffffffffffffffffffffffffffffffffff169050919050565b6000611cb082612bc0565b90508073ffffffffffffffffffffffffffffffffffffffff168373ffffffffffffffffffffffffffffffffffffffff161415611d37576040517f08c379a0000000000000000000000000000000000000000000000000000000008152600401808060200182810382526021815260200180615d676021913960400191505060405180910390fd5b8073ffffffffffffffffffffffffffffffffffffffff16611d566144eb565b73ffffffffffffffffffffffffffffffffffffffff161480611d855750611d8481611d7f6144eb565b613c6d565b5b611dda576040517f08c379a0000000000000000000000000000000000000000000000000000000008152600401808060200182810382526038815260200180615bb96038913960400191505060405180910390fd5b826002600084815260200190815260200160002060006101000a81548173ffffffffffffffffffffffffffffffffffffffff021916908373ffffffffffffffffffffffffffffffffffffffff160217905550818373ffffffffffffffffffffffffffffffffffffffff168273ffffffffffffffffffffffffffffffffffffffff167f8c5be1e5ebec7d5bd14f71427d1e84f3dd0314c0f7b2291e5b200ac8c7c3b92560405160405180910390a4505050565b6000601160003373ffffffffffffffffffffffffffffffffffffffff1673ffffffffffffffffffffffffffffffffffffffff1681526020019081526020016000206000015414611f44576040517f08c379a00000000000000000000000000000000000000000000000000000000081526004018080602001828103825260168152602001807f4475706c696361746573206e6f7420616c6c6f7765640000000000000000000081525060200191505060405180910390fd5b600e60149054906101000a900460ff161580611f925750611f63613332565b73ffffffffffffffffffffffffffffffffffffffff163373ffffffffffffffffffffffffffffffffffffffff16145b611f9b57600080fd5b611fa36158eb565b6040518060a0016040528042815260200188888080601f016020809104026020016040519081016040528093929190818152602001838380828437600081840152601f19601f82011690508083019250505050505050815260200186868080601f016020809104026020016040519081016040528093929190818152602001838380828437600081840152601f19601f82011690508083019250505050505050815260200184848080601f016020809104026020016040519081016040528093929190818152602001838380828437600081840152601f19601f82011690508083019250505050505050815260200160011515815250905080601160003373ffffffffffffffffffffffffffffffffffffffff1673ffffffffffffffffffffffffffffffffffffffff16815260200190815260200160002060008201518160000155602082015181600101908051906020019061210192919061591c565b50604082015181600201908051906020019061211e92919061591c565b50606082015181600301908051906020019061213b92919061591c565b5060808201518160040160006101000a81548160ff02191690831515021790555090505060123390806001815401808255809150509060018203906000526020600020016000909192909190916101000a81548173ffffffffffffffffffffffffffffffffffffffff021916908373ffffffffffffffffffffffffffffffffffffffff1602179055505050505050505050565b600060608060606000601160008773ffffffffffffffffffffffffffffffffffffffff1673ffffffffffffffffffffffffffffffffffffffff16815260200190815260200160002060000154601160008873ffffffffffffffffffffffffffffffffffffffff1673ffffffffffffffffffffffffffffffffffffffff168152602001908152602001600020600101601160008973ffffffffffffffffffffffffffffffffffffffff1673ffffffffffffffffffffffffffffffffffffffff168152602001908152602001600020600201601160008a73ffffffffffffffffffffffffffffffffffffffff1673ffffffffffffffffffffffffffffffffffffffff168152602001908152602001600020600301601160008b73ffffffffffffffffffffffffffffffffffffffff1673ffffffffffffffffffffffffffffffffffffffff16815260200190815260200160002060040160009054906101000a900460ff16838054600181600116156101000203166002900480601f0160208091040260200160405190810160405280929190818152602001828054600181600116156101000203166002900480156123c55780601f1061239a576101008083540402835291602001916123c5565b820191906000526020600020905b8154815290600101906020018083116123a857829003601f168201915b50505050509350828054600181600116156101000203166002900480601f0160208091040260200160405190810160405280929190818152602001828054600181600116156101000203166002900480156124615780601f1061243657610100808354040283529160200191612461565b820191906000526020600020905b81548152906001019060200180831161244457829003601f168201915b50505050509250818054600181600116156101000203166002900480601f0160208091040260200160405190810160405280929190818152602001828054600181600116156101000203166002900480156124fd5780601f106124d2576101008083540402835291602001916124fd565b820191906000526020600020905b8154815290600101906020018083116124e057829003601f168201915b505050505091509450945094509450945091939590929450565b6000600780549050905090565b6012818154811061253157fe5b906000526020600020016000915054906101000a900473ffffffffffffffffffffffffffffffffffffffff1681565b61257161256b6144eb565b826144f3565b6125c6576040517f08c379a0000000000000000000000000000000000000000000000000000000008152600401808060200182810382526031815260200180615d886031913960400191505060405180910390fd5b6125d18383836145e7565b505050565b60006125e183612d2a565b8210612638576040517f08c379a000000000000000000000000000000000000000000000000000000000815260040180806020018281038252602b815260200180615abc602b913960400191505060405180910390fd5b600560008473ffffffffffffffffffffffffffffffffffffffff1673ffffffffffffffffffffffffffffffffffffffff168152602001908152602001600020828154811061268257fe5b9060005260206000200154905092915050565b6060601280548060200260200160405190810160405280929190818152602001828054801561271957602002820191906000526020600020905b8160009054906101000a900473ffffffffffffffffffffffffffffffffffffffff1673ffffffffffffffffffffffffffffffffffffffff16815260200190600101908083116126cf575b5050505050905090565b600e60159054906101000a900460ff1681565b61273e61335c565b6127b0576040517f08c379a00000000000000000000000000000000000000000000000000000000081526004018080602001828103825260208152602001807f4f776e61626c653a2063616c6c6572206973206e6f7420746865206f776e657281525060200191505060405180910390fd5b600e60149054906101000a900460ff166127c957600080fd5b60011515600e60149054906101000a900460ff161515146127e957600080fd5b6000600e60146101000a81548160ff0219169083151502179055507f7805862f689e2f13df9f062ff482ad3ad112aca9e0847911ed832e158c525b3360405160405180910390a1565b600061284461283f6144eb565b613908565b612899576040517f08c379a0000000000000000000000000000000000000000000000000000000008152600401808060200182810382526030815260200180615c446030913960400191505060405180910390fd5b6128a3838361460b565b6001905092915050565b6128c883838360405180602001604052806000815250613925565b505050565b600f8054600181600116156101000203166002900480601f0160208091040260200160405190810160405280929190818152602001828054600181600116156101000203166002900480156129635780601f1061293857610100808354040283529160200191612963565b820191906000526020600020905b81548152906001019060200180831161294657829003601f168201915b505050505081565b61297361335c565b6129e5576040517f08c379a00000000000000000000000000000000000000000000000000000000081526004018080602001828103825260208152602001807f4f776e61626c653a2063616c6c6572206973206e6f7420746865206f776e657281525060200191505060405180910390fd5b6000600e60146101000a81548160ff0219169083151502179055506000600e60156101000a81548160ff0219169083151502179055507faff39f66825d4448497d384dee3f4a3adf00a622960add00806503ae4ccee01c60405160405180910390a1565b80600f9080519060200190612a5f92919061599c565b5050565b6000612a6d612517565b8210612ac4576040517f08c379a000000000000000000000000000000000000000000000000000000000815260040180806020018281038252602c815260200180615db9602c913960400191505060405180910390fd5b60078281548110612ad157fe5b90600052602060002001549050919050565b600e60149054906101000a900460ff1681565b81612b0081612bc0565b73ffffffffffffffffffffffffffffffffffffffff163373ffffffffffffffffffffffffffffffffffffffff1614612ba0576040517f08c379a00000000000000000000000000000000000000000000000000000000081526004018080602001828103825260158152602001807f796f75206d75737420626520746865206f776e6572000000000000000000000081525060200191505060405180910390fd5b816010600085815260200190815260200160002060010181905550505050565b6000806001600084815260200190815260200160002060009054906101000a900473ffffffffffffffffffffffffffffffffffffffff169050600073ffffffffffffffffffffffffffffffffffffffff168173ffffffffffffffffffffffffffffffffffffffff161415612c7f576040517f08c379a0000000000000000000000000000000000000000000000000000000008152600401808060200182810382526029815260200180615c1b6029913960400191505060405180910390fd5b80915050919050565b6060600b8054600181600116156101000203166002900480601f016020809104026020016040519081016040528092919081815260200182805460018160011615610100020316600290048015612d205780601f10612cf557610100808354040283529160200191612d20565b820191906000526020600020905b815481529060010190602001808311612d0357829003601f168201915b5050505050905090565b60008073ffffffffffffffffffffffffffffffffffffffff168273ffffffffffffffffffffffffffffffffffffffff161415612db1576040517f08c379a000000000000000000000000000000000000000000000000000000000815260040180806020018281038252602a815260200180615bf1602a913960400191505060405180910390fd5b612df8600360008473ffffffffffffffffffffffffffffffffffffffff1673ffffffffffffffffffffffffffffffffffffffff16815260200190815260200160002061462c565b9050919050565b612e0761335c565b612e79576040517f08c379a00000000000000000000000000000000000000000000000000000000081526004018080602001828103825260208152602001807f4f776e61626c653a2063616c6c6572206973206e6f7420746865206f776e657281525060200191505060405180910390fd5b600073ffffffffffffffffffffffffffffffffffffffff16600e60009054906101000a900473ffffffffffffffffffffffffffffffffffffffff1673ffffffffffffffffffffffffffffffffffffffff167f8be0079c531659141344cd1fd0a4f28419497f9722a3daafe3b4186f6b6457e060405160405180910390a36000600e60006101000a81548173ffffffffffffffffffffffffffffffffffffffff021916908373ffffffffffffffffffffffffffffffffffffffff160217905550565b612f4261335c565b612fb4576040517f08c379a00000000000000000000000000000000000000000000000000000000081526004018080602001828103825260208152602001807f4f776e61626c653a2063616c6c6572206973206e6f7420746865206f776e657281525060200191505060405180910390fd5b600e60149054906101000a900460ff1615806130025750612fd3613332565b73ffffffffffffffffffffffffffffffffffffffff163373ffffffffffffffffffffffffffffffffffffffff16145b61300b57600080fd5b60011515600e60159054906101000a900460ff1615151461302b57600080fd5b6001600e60146101000a81548160ff0219169083151502179055507f6985a02210a168e66602d3235cb6db0e70f92b3ba4d376a33c0f3d9434bff62560405160405180910390a1565b6060600061308183612d2a565b905060008114156130c55760006040519080825280602002602001820160405280156130bc5781602001602082028038833980820191505090505b5091505061318c565b6060816040519080825280602002602001820160405280156130f65781602001602082028038833980820191505090505b5090506000613103612517565b905060008090506000600190505b828111613183578673ffffffffffffffffffffffffffffffffffffffff1661313882612bc0565b73ffffffffffffffffffffffffffffffffffffffff161415613176578084838151811061316157fe5b60200260200101818152505081806001019250505b8080600101915050613111565b83955050505050505b919050565b600061319c82612bc0565b90506010600083815260200190815260200160002060010154341461320c576040517f08c379a000000000000000000000000000000000000000000000000000000000815260040180806020018281038252602a815260200180615b63602a913960400191505060405180910390fd5b6132178133846145e7565b60006132228261463a565b90508073ffffffffffffffffffffffffffffffffffffffff166108fc60106000868152602001908152602001600020600101549081150290604051600060405180830381858888f19350505050158015613280573d6000803e3d6000fd5b5060006010600085815260200190815260200160002060040160146101000a81548160ff021916908315150217905550505050565b60006132c76132c26144eb565b613908565b61331c576040517f08c379a0000000000000000000000000000000000000000000000000000000008152600401808060200182810382526030815260200180615c446030913960400191505060405180910390fd5b613327848484614644565b600190509392505050565b6000600e60009054906101000a900473ffffffffffffffffffffffffffffffffffffffff16905090565b6000600e60009054906101000a900473ffffffffffffffffffffffffffffffffffffffff1673ffffffffffffffffffffffffffffffffffffffff1661339f6144eb565b73ffffffffffffffffffffffffffffffffffffffff1614905090565b6060600a8054600181600116156101000203166002900480601f0160208091040260200160405190810160405280929190818152602001828054600181600116156101000203166002900480156134535780601f1061342857610100808354040283529160200191613453565b820191906000526020600020905b81548152906001019060200180831161343657829003601f168201915b5050505050905090565b61346d6134686144eb565b613908565b6134c2576040517f08c379a0000000000000000000000000000000000000000000000000000000008152600401808060200182810382526030815260200180615c446030913960400191505060405180910390fd5b6134cb816146b5565b50565b6134de6134d96144eb565b61470f565b565b600e60149054906101000a900460ff16158061352e57506134ff613332565b73ffffffffffffffffffffffffffffffffffffffff163373ffffffffffffffffffffffffffffffffffffffff16145b61353757600080fd5b8061354181612bc0565b73ffffffffffffffffffffffffffffffffffffffff163373ffffffffffffffffffffffffffffffffffffffff16146135e1576040517f08c379a00000000000000000000000000000000000000000000000000000000081526004018080602001828103825260158152602001807f796f75206d75737420626520746865206f776e6572000000000000000000000081525060200191505060405180910390fd5b6135ec3384846145e7565b505050565b60008060008060008060006010600089815260200190815260200160002060000154601060008a815260200190815260200160002060010154601060008b815260200190815260200160002060020154601060008c815260200190815260200160002060030154601060008d815260200190815260200160002060040160009054906101000a900473ffffffffffffffffffffffffffffffffffffffff16601060008e815260200190815260200160002060040160149054906101000a900460ff166136bc8e612bc0565b9650965096509650965096509650919395979092949650565b60006136e76136e26144eb565b613908565b61373c576040517f08c379a0000000000000000000000000000000000000000000000000000000008152600401808060200182810382526030815260200180615c446030913960400191505060405180910390fd5b6137468383614769565b6001905092915050565b6137586144eb565b73ffffffffffffffffffffffffffffffffffffffff168273ffffffffffffffffffffffffffffffffffffffff1614156137f9576040517f08c379a00000000000000000000000000000000000000000000000000000000081526004018080602001828103825260198152602001807f4552433732313a20617070726f766520746f2063616c6c65720000000000000081525060200191505060405180910390fd5b80600460006138066144eb565b73ffffffffffffffffffffffffffffffffffffffff1673ffffffffffffffffffffffffffffffffffffffff16815260200190815260200160002060008473ffffffffffffffffffffffffffffffffffffffff1673ffffffffffffffffffffffffffffffffffffffff16815260200190815260200160002060006101000a81548160ff0219169083151502179055508173ffffffffffffffffffffffffffffffffffffffff166138b36144eb565b73ffffffffffffffffffffffffffffffffffffffff167f17307eab39ab6107e8899845ad3d59bd9653f200f220920489ca2b5937696c3183604051808215151515815260200191505060405180910390a35050565b600061391e82600d61478790919063ffffffff16565b9050919050565b6139366139306144eb565b836144f3565b61398b576040517f08c379a0000000000000000000000000000000000000000000000000000000008152600401808060200182810382526031815260200180615d886031913960400191505060405180910390fd5b61399784848484614865565b50505050565b816010600082815260200190815260200160002060040160009054906101000a900473ffffffffffffffffffffffffffffffffffffffff1673ffffffffffffffffffffffffffffffffffffffff163373ffffffffffffffffffffffffffffffffffffffff16148015613a425750613a1381612bc0565b73ffffffffffffffffffffffffffffffffffffffff163373ffffffffffffffffffffffffffffffffffffffff16145b613a4b57600080fd5b816010600085815260200190815260200160002060020181905550505050565b6060613a7682614479565b613acb576040517f08c379a000000000000000000000000000000000000000000000000000000000815260040180806020018281038252602f815260200180615d38602f913960400191505060405180910390fd5b6060600c60008481526020019081526020016000208054600181600116156101000203166002900480601f016020809104026020016040519081016040528092919081815260200182805460018160011615610100020316600290048015613b745780601f10613b4957610100808354040283529160200191613b74565b820191906000526020600020905b815481529060010190602001808311613b5757829003601f168201915b50505050509050600081511415613b9d5760405180602001604052806000815250915050613c68565b600b816040516020018083805460018160011615610100020316600290048015613bfe5780601f10613bdc576101008083540402835291820191613bfe565b820191906000526020600020905b815481529060010190602001808311613bea575b505082805190602001908083835b60208310613c2f5780518252602082019150602081019050602083039250613c0c565b6001836020036101000a038019825116818451168082178552505050505050905001925050506040516020818303038152906040529150505b919050565b6000600460008473ffffffffffffffffffffffffffffffffffffffff1673ffffffffffffffffffffffffffffffffffffffff16815260200190815260200160002060008373ffffffffffffffffffffffffffffffffffffffff1673ffffffffffffffffffffffffffffffffffffffff16815260200190815260200160002060009054906101000a900460ff16905092915050565b81613d0b81612bc0565b73ffffffffffffffffffffffffffffffffffffffff163373ffffffffffffffffffffffffffffffffffffffff1614613dab576040517f08c379a00000000000000000000000000000000000000000000000000000000081526004018080602001828103825260158152602001807f796f75206d75737420626520746865206f776e6572000000000000000000000081525060200191505060405180910390fd5b816010600085815260200190815260200160002060040160146101000a81548160ff021916908315150217905550505050565b600e60149054906101000a900460ff161580613e2c5750613dfd613332565b73ffffffffffffffffffffffffffffffffffffffff163373ffffffffffffffffffffffffffffffffffffffff16145b613e3557600080fd5b806010600082815260200190815260200160002060040160009054906101000a900473ffffffffffffffffffffffffffffffffffffffff1673ffffffffffffffffffffffffffffffffffffffff163373ffffffffffffffffffffffffffffffffffffffff1614613ea457600080fd5b60106000838152602001908152602001600020600201544211613f2f576040517f08c379a000000000000000000000000000000000000000000000000000000000815260040180806020018281038252601d8152602001807f596f75206e65656420746f20776169742074686520646561646c696e6500000081525060200191505060405180910390fd5b6000613f3a83612bc0565b9050613f478133856145e7565b50505050565b613f5561335c565b613fc7576040517f08c379a00000000000000000000000000000000000000000000000000000000081526004018080602001828103825260208152602001807f4f776e61626c653a2063616c6c6572206973206e6f7420746865206f776e657281525060200191505060405180910390fd5b613fd0816148d7565b50565b60106020528060005260406000206000915090508060000154908060010154908060020154908060030154908060040160009054906101000a900473ffffffffffffffffffffffffffffffffffffffff16908060040160149054906101000a900460ff16905086565b60011515601160003373ffffffffffffffffffffffffffffffffffffffff1673ffffffffffffffffffffffffffffffffffffffff16815260200190815260200160002060040160009054906101000a900460ff16151514614105576040517f08c379a000000000000000000000000000000000000000000000000000000000815260040180806020018281038252600b8152602001807f6e6f7420616c6c6f77656400000000000000000000000000000000000000000081525060200191505060405180910390fd5b600e60149054906101000a900460ff1615806141535750614124613332565b73ffffffffffffffffffffffffffffffffffffffff163373ffffffffffffffffffffffffffffffffffffffff16145b61415c57600080fd5b614164615a1c565b6040518060c001604052808781526020018681526020018581526020014281526020013373ffffffffffffffffffffffffffffffffffffffff16815260200160011515815250905080601060008581526020019081526020016000206000820151816000015560208201518160010155604082015181600201556060820151816003015560808201518160040160006101000a81548173ffffffffffffffffffffffffffffffffffffffff021916908373ffffffffffffffffffffffffffffffffffffffff16021790555060a08201518160040160146101000a81548160ff02191690831515021790555090505061425c3384614769565b6142668383614a1d565b505050505050565b6011602052806000526040600020600091509050806000015490806001018054600181600116156101000203166002900480601f0160208091040260200160405190810160405280929190818152602001828054600181600116156101000203166002900480156143205780601f106142f557610100808354040283529160200191614320565b820191906000526020600020905b81548152906001019060200180831161430357829003601f168201915b505050505090806002018054600181600116156101000203166002900480601f0160208091040260200160405190810160405280929190818152602001828054600181600116156101000203166002900480156143be5780601f10614393576101008083540402835291602001916143be565b820191906000526020600020905b8154815290600101906020018083116143a157829003601f168201915b505050505090806003018054600181600116156101000203166002900480601f01602080910402602001604051908101604052809291908181526020018280546001816001161561010002031660029004801561445c5780601f106144315761010080835404028352916020019161445c565b820191906000526020600020905b81548152906001019060200180831161443f57829003601f168201915b5050505050908060040160009054906101000a900460ff16905085565b6000806001600084815260200190815260200160002060009054906101000a900473ffffffffffffffffffffffffffffffffffffffff169050600073ffffffffffffffffffffffffffffffffffffffff168173ffffffffffffffffffffffffffffffffffffffff161415915050919050565b600033905090565b60006144fe82614479565b614553576040517f08c379a000000000000000000000000000000000000000000000000000000000815260040180806020018281038252602c815260200180615b8d602c913960400191505060405180910390fd5b600061455e83612bc0565b90508073ffffffffffffffffffffffffffffffffffffffff168473ffffffffffffffffffffffffffffffffffffffff1614806145cd57508373ffffffffffffffffffffffffffffffffffffffff166145b584611c0a565b73ffffffffffffffffffffffffffffffffffffffff16145b806145de57506145dd8185613c6d565b5b91505092915050565b6145f2838383614aa7565b6145fc8382614d02565b6146068282614ea0565b505050565b6146158282614f67565b61461f8282614ea0565b6146288161517f565b5050565b600081600001549050919050565b6000819050919050565b61464e838361460b565b61465b60008484846151cb565b6146b0576040517f08c379a0000000000000000000000000000000000000000000000000000000008152600401808060200182810382526032815260200180615ae76032913960400191505060405180910390fd5b505050565b6146c981600d61550790919063ffffffff16565b8073ffffffffffffffffffffffffffffffffffffffff167f6ae172837ea30b801fbfcdd4108aa1d5bf8ff775444fd70256b44e6bf3dfc3f660405160405180910390a250565b61472381600d6155e290919063ffffffff16565b8073ffffffffffffffffffffffffffffffffffffffff167fe94479a9f7e1952cc78f2d6baab678adc1b772d936c6583def489e524cb6669260405160405180910390a250565b614783828260405180602001604052806000815250614644565b5050565b60008073ffffffffffffffffffffffffffffffffffffffff168273ffffffffffffffffffffffffffffffffffffffff16141561480e576040517f08c379a0000000000000000000000000000000000000000000000000000000008152600401808060200182810382526022815260200180615ced6022913960400191505060405180910390fd5b8260000160008373ffffffffffffffffffffffffffffffffffffffff1673ffffffffffffffffffffffffffffffffffffffff16815260200190815260200160002060009054906101000a900460ff16905092915050565b6148708484846145e7565b61487c848484846151cb565b6148d1576040517f08c379a0000000000000000000000000000000000000000000000000000000008152600401808060200182810382526032815260200180615ae76032913960400191505060405180910390fd5b50505050565b600073ffffffffffffffffffffffffffffffffffffffff168173ffffffffffffffffffffffffffffffffffffffff16141561495d576040517f08c379a0000000000000000000000000000000000000000000000000000000008152600401808060200182810382526026815260200180615b196026913960400191505060405180910390fd5b8073ffffffffffffffffffffffffffffffffffffffff16600e60009054906101000a900473ffffffffffffffffffffffffffffffffffffffff1673ffffffffffffffffffffffffffffffffffffffff167f8be0079c531659141344cd1fd0a4f28419497f9722a3daafe3b4186f6b6457e060405160405180910390a380600e60006101000a81548173ffffffffffffffffffffffffffffffffffffffff021916908373ffffffffffffffffffffffffffffffffffffffff16021790555050565b614a2682614479565b614a7b576040517f08c379a000000000000000000000000000000000000000000000000000000000815260040180806020018281038252602c815260200180615cc1602c913960400191505060405180910390fd5b80600c60008481526020019081526020016000209080519060200190614aa292919061599c565b505050565b8273ffffffffffffffffffffffffffffffffffffffff16614ac782612bc0565b73ffffffffffffffffffffffffffffffffffffffff1614614b33576040517f08c379a0000000000000000000000000000000000000000000000000000000008152600401808060200182810382526029815260200180615d0f6029913960400191505060405180910390fd5b600073ffffffffffffffffffffffffffffffffffffffff168273ffffffffffffffffffffffffffffffffffffffff161415614bb9576040517f08c379a0000000000000000000000000000000000000000000000000000000008152600401808060200182810382526024815260200180615b3f6024913960400191505060405180910390fd5b614bc28161569f565b614c09600360008573ffffffffffffffffffffffffffffffffffffffff1673ffffffffffffffffffffffffffffffffffffffff16815260200190815260200160002061575d565b614c50600360008473ffffffffffffffffffffffffffffffffffffffff1673ffffffffffffffffffffffffffffffffffffffff168152602001908152602001600020615780565b816001600083815260200190815260200160002060006101000a81548173ffffffffffffffffffffffffffffffffffffffff021916908373ffffffffffffffffffffffffffffffffffffffff160217905550808273ffffffffffffffffffffffffffffffffffffffff168473ffffffffffffffffffffffffffffffffffffffff167fddf252ad1be2c89b69c2b068fc378daa952ba7f163c4a11628f55a4df523b3ef60405160405180910390a4505050565b6000614d5a6001600560008673ffffffffffffffffffffffffffffffffffffffff1673ffffffffffffffffffffffffffffffffffffffff1681526020019081526020016000208054905061579690919063ffffffff16565b9050600060066000848152602001908152602001600020549050818114614e47576000600560008673ffffffffffffffffffffffffffffffffffffffff1673ffffffffffffffffffffffffffffffffffffffff1681526020019081526020016000208381548110614dc757fe5b9060005260206000200154905080600560008773ffffffffffffffffffffffffffffffffffffffff1673ffffffffffffffffffffffffffffffffffffffff1681526020019081526020016000208381548110614e1f57fe5b9060005260206000200181905550816006600083815260200190815260200160002081905550505b600560008573ffffffffffffffffffffffffffffffffffffffff1673ffffffffffffffffffffffffffffffffffffffff168152602001908152602001600020805480919060019003614e999190615a6a565b5050505050565b600560008373ffffffffffffffffffffffffffffffffffffffff1673ffffffffffffffffffffffffffffffffffffffff168152602001908152602001600020805490506006600083815260200190815260200160002081905550600560008373ffffffffffffffffffffffffffffffffffffffff1673ffffffffffffffffffffffffffffffffffffffff1681526020019081526020016000208190806001815401808255809150509060018203906000526020600020016000909192909190915055505050565b600073ffffffffffffffffffffffffffffffffffffffff168273ffffffffffffffffffffffffffffffffffffffff16141561500a576040517f08c379a00000000000000000000000000000000000000000000000000000000081526004018080602001828103825260208152602001807f4552433732313a206d696e7420746f20746865207a65726f206164647265737381525060200191505060405180910390fd5b61501381614479565b15615086576040517f08c379a000000000000000000000000000000000000000000000000000000000815260040180806020018281038252601c8152602001807f4552433732313a20746f6b656e20616c7265616479206d696e7465640000000081525060200191505060405180910390fd5b816001600083815260200190815260200160002060006101000a81548173ffffffffffffffffffffffffffffffffffffffff021916908373ffffffffffffffffffffffffffffffffffffffff16021790555061511f600360008473ffffffffffffffffffffffffffffffffffffffff1673ffffffffffffffffffffffffffffffffffffffff168152602001908152602001600020615780565b808273ffffffffffffffffffffffffffffffffffffffff16600073ffffffffffffffffffffffffffffffffffffffff167fddf252ad1be2c89b69c2b068fc378daa952ba7f163c4a11628f55a4df523b3ef60405160405180910390a45050565b6007805490506008600083815260200190815260200160002081905550600781908060018154018082558091505090600182039060005260206000200160009091929091909150555050565b60006151ec8473ffffffffffffffffffffffffffffffffffffffff166157e0565b6151f957600190506154ff565b600060608573ffffffffffffffffffffffffffffffffffffffff168673ffffffffffffffffffffffffffffffffffffffff1663150b7a02905060e01b61523d6144eb565b898888604051602401808573ffffffffffffffffffffffffffffffffffffffff1673ffffffffffffffffffffffffffffffffffffffff1681526020018473ffffffffffffffffffffffffffffffffffffffff1673ffffffffffffffffffffffffffffffffffffffff16815260200183815260200180602001828103825283818151815260200191508051906020019080838360005b838110156152ed5780820151818401526020810190506152d2565b50505050905090810190601f16801561531a5780820380516001836020036101000a031916815260200191505b5095505050505050604051602081830303815290604052907bffffffffffffffffffffffffffffffffffffffffffffffffffffffff19166020820180517bffffffffffffffffffffffffffffffffffffffffffffffffffffffff83818316178352505050506040518082805190602001908083835b602083106153b2578051825260208201915060208101905060208303925061538f565b6001836020036101000a0380198251168184511680821785525050505050509050019150506000604051808303816000865af19150503d8060008114615414576040519150601f19603f3d011682016040523d82523d6000602084013e615419565b606091505b509150915081615487576000815111156154365780518082602001fd5b6040517f08c379a0000000000000000000000000000000000000000000000000000000008152600401808060200182810382526032815260200180615ae76032913960400191505060405180910390fd5b600081806020019051602081101561549e57600080fd5b8101908080519060200190929190505050905063150b7a0260e01b7bffffffffffffffffffffffffffffffffffffffffffffffffffffffff1916817bffffffffffffffffffffffffffffffffffffffffffffffffffffffff19161493505050505b949350505050565b6155118282614787565b15615584576040517f08c379a000000000000000000000000000000000000000000000000000000000815260040180806020018281038252601f8152602001807f526f6c65733a206163636f756e7420616c72656164792068617320726f6c650081525060200191505060405180910390fd5b60018260000160008373ffffffffffffffffffffffffffffffffffffffff1673ffffffffffffffffffffffffffffffffffffffff16815260200190815260200160002060006101000a81548160ff0219169083151502179055505050565b6155ec8282614787565b615641576040517f08c379a0000000000000000000000000000000000000000000000000000000008152600401808060200182810382526021815260200180615c746021913960400191505060405180910390fd5b60008260000160008373ffffffffffffffffffffffffffffffffffffffff1673ffffffffffffffffffffffffffffffffffffffff16815260200190815260200160002060006101000a81548160ff0219169083151502179055505050565b600073ffffffffffffffffffffffffffffffffffffffff166002600083815260200190815260200160002060009054906101000a900473ffffffffffffffffffffffffffffffffffffffff1673ffffffffffffffffffffffffffffffffffffffff161461575a5760006002600083815260200190815260200160002060006101000a81548173ffffffffffffffffffffffffffffffffffffffff021916908373ffffffffffffffffffffffffffffffffffffffff1602179055505b50565b6157756001826000015461579690919063ffffffff16565b816000018190555050565b6001816000016000828254019250508190555050565b60006157d883836040518060400160405280601e81526020017f536166654d6174683a207375627472616374696f6e206f766572666c6f77000081525061582b565b905092915050565b60008060007fc5d2460186f7233c927e7db2dcc703c0e500b653ca82273b7bfad8045d85a47060001b9050833f915080821415801561582257506000801b8214155b92505050919050565b60008383111582906158d8576040517f08c379a00000000000000000000000000000000000000000000000000000000081526004018080602001828103825283818151815260200191508051906020019080838360005b8381101561589d578082015181840152602081019050615882565b50505050905090810190601f1680156158ca5780820380516001836020036101000a031916815260200191505b509250505060405180910390fd5b5060008385039050809150509392505050565b6040518060a00160405280600081526020016060815260200160608152602001606081526020016000151581525090565b828054600181600116156101000203166002900490600052602060002090601f016020900481019282601f1061595d57805160ff191683800117855561598b565b8280016001018555821561598b579182015b8281111561598a57825182559160200191906001019061596f565b5b5090506159989190615a96565b5090565b828054600181600116156101000203166002900490600052602060002090601f016020900481019282601f106159dd57805160ff1916838001178555615a0b565b82800160010185558215615a0b579182015b82811115615a0a5782518255916020019190600101906159ef565b5b509050615a189190615a96565b5090565b6040518060c0016040528060008152602001600081526020016000815260200160008152602001600073ffffffffffffffffffffffffffffffffffffffff1681526020016000151581525090565b815481835581811115615a9157818360005260206000209182019101615a909190615a96565b5b505050565b615ab891905b80821115615ab4576000816000905550600101615a9c565b5090565b9056fe455243373231456e756d657261626c653a206f776e657220696e646578206f7574206f6620626f756e64734552433732313a207472616e7366657220746f206e6f6e20455243373231526563656976657220696d706c656d656e7465724f776e61626c653a206e6577206f776e657220697320746865207a65726f20616464726573734552433732313a207472616e7366657220746f20746865207a65726f2061646472657373596f75206e65656420746f2073656e642074686520657861637420616d6f756e74206f662045746865724552433732313a206f70657261746f7220717565727920666f72206e6f6e6578697374656e7420746f6b656e4552433732313a20617070726f76652063616c6c6572206973206e6f74206f776e6572206e6f7220617070726f76656420666f7220616c6c4552433732313a2062616c616e636520717565727920666f7220746865207a65726f20616464726573734552433732313a206f776e657220717565727920666f72206e6f6e6578697374656e7420746f6b656e4d696e746572526f6c653a2063616c6c657220646f6573206e6f74206861766520746865204d696e74657220726f6c65526f6c65733a206163636f756e7420646f6573206e6f74206861766520726f6c654552433732313a20617070726f76656420717565727920666f72206e6f6e6578697374656e7420746f6b656e4552433732314d657461646174613a2055524920736574206f66206e6f6e6578697374656e7420746f6b656e526f6c65733a206163636f756e7420697320746865207a65726f20616464726573734552433732313a207472616e73666572206f6620746f6b656e2074686174206973206e6f74206f776e4552433732314d657461646174613a2055524920717565727920666f72206e6f6e6578697374656e7420746f6b656e4552433732313a20617070726f76616c20746f2063757272656e74206f776e65724552433732313a207472616e736665722063616c6c6572206973206e6f74206f776e6572206e6f7220617070726f766564455243373231456e756d657261626c653a20676c6f62616c20696e646578206f7574206f6620626f756e6473a265627a7a72315820197c75f3503d3f33910df27780e6cabb0b68a00b66f7b01accd774b3a0799efc64736f6c63430005100032526f6c65733a206163636f756e7420697320746865207a65726f2061646472657373",
  "source": "pragma solidity ^0.5.0;\n\nimport \"@openzeppelin/contracts/token/ERC721/ERC721Full.sol\";\nimport \"@openzeppelin/contracts/token/ERC721/ERC721Mintable.sol\";\n\nimport \"./Pausable.sol\";\n\n\n\ncontract Coupoken is ERC721Full, ERC721Mintable, Pausable {\n\n\n  constructor() ERC721Full(\"Coupoken\", \"CPK\") public {}\n\n  string public myString = \"test\";\n\n  function set(string memory x) public {\n    myString = x;\n  }\n\n  mapping(uint256 => Coupon) public tokenIdToCouponInfo;\n  mapping(address => Merchant) public addressToMerchant;\n\n  address[] public merchantList;\n\n  function getMerchantList() external view returns (address[] memory) {\n    return merchantList;\n  }\n\n  struct Merchant {\n    uint256 createdAt;\n    string name;\n    string category;\n    string websiteUrl;\n    bool enabled;\n  }\n\n  struct Coupon {\n        uint256 discountSize;\n        uint256 price;\n        uint256 deadline;\n        uint256 createdAt;\n        address merchantAdr;\n        bool tradable;\n    }\n\n  modifier isCouponMerchantOwner(uint256 _tokenId) {\n    require(msg.sender == tokenIdToCouponInfo[_tokenId].merchantAdr && msg.sender == ownerOf(_tokenId));\n    _;\n  }\n\n  modifier isCouponMerchant(uint256 _tokenId) {\n    require(msg.sender == tokenIdToCouponInfo[_tokenId].merchantAdr);\n    _;\n  }\n\n  modifier isCouponTradable(uint256 _tokenId) {\n    require(tokenIdToCouponInfo[_tokenId].tradable == true, \"token locked\");\n    _;\n  }\n\n  modifier isCouponOwner (uint256 _tokenId) {\n    require(msg.sender == ownerOf(_tokenId), \"you must be the owner\");\n    _;\n  }\n\n  modifier isMerchantExistent() {\n    require(addressToMerchant[msg.sender].createdAt == 0, \"Duplicates not allowed\");\n    _;\n  }\n\n  modifier isMerchantEnabled() {\n    require(addressToMerchant[msg.sender].enabled == true, \"not allowed\");\n    _;\n  }\n\n  function createMerchant(\n    string calldata _name,\n    string calldata _category,\n    string calldata _websiteUrl\n  )\n    external\n    isMerchantExistent\n    whenNotPaused\n  {\n    Merchant memory newMerchant= Merchant(now, _name, _category, _websiteUrl, true);\n    addressToMerchant[msg.sender] = newMerchant;\n    merchantList.push(msg.sender);\n  }\n\n\n\n  function createCoupon(\n    uint256 _discountSize,\n    uint256 _price,\n    uint256 _deadline,\n    uint256 _tokenId,\n    string  memory _tokenURI\n  )\n    public\n    isMerchantEnabled\n    whenNotPaused\n  {\n      Coupon memory newCoupon = Coupon(_discountSize, _price, _deadline, now, msg.sender, true);\n      tokenIdToCouponInfo[_tokenId] = newCoupon;\n      _safeMint(msg.sender, _tokenId);\n      _setTokenURI(_tokenId, _tokenURI);\n  }\n\n  function transferCoupon(address _target, uint256 _tokenId) public whenNotPaused isCouponOwner(_tokenId) {\n       _transferFrom(msg.sender, _target, _tokenId);\n   }\n\n\n  function toggleLockCoupon(uint256 _tokenId, bool _tradable)\n    public\n    isCouponOwner(_tokenId)\n  {\n    tokenIdToCouponInfo[_tokenId].tradable = _tradable;\n  }\n\n  function setPriceCoupon(uint256 _tokenId, uint256 _price)\n    public\n    isCouponOwner(_tokenId)\n  {\n    tokenIdToCouponInfo[_tokenId].price = _price;\n  }\n\n  function setDeadlineCoupon(uint256 _tokenId, uint256 _deadline)\n    public\n    isCouponMerchantOwner(_tokenId)\n  {\n    tokenIdToCouponInfo[_tokenId].deadline = _deadline;\n  }\n\n\n  function claimBackCoupon(address _target, uint256 _tokenId) public whenNotPaused isCouponMerchant(_tokenId) {\n        require(now > tokenIdToCouponInfo[_tokenId].deadline, \"You need to wait the deadline\");\n        address ownerAddress = ownerOf(_tokenId);\n        _transferFrom(ownerAddress,  msg.sender, _tokenId);\n   }\n\n\n  function getCouponInfo (uint _tokenId) public view returns (\n    uint256 discountSize,\n    uint256 price,\n    uint256 deadline,\n    uint256 createdAt,\n    address merchantAdr,\n    bool tradable,\n    address actualOwner\n      ) {\n      return (\n        tokenIdToCouponInfo[_tokenId].discountSize,\n        tokenIdToCouponInfo[_tokenId].price,\n        tokenIdToCouponInfo[_tokenId].deadline,\n        tokenIdToCouponInfo[_tokenId].createdAt,\n        tokenIdToCouponInfo[_tokenId].merchantAdr,\n        tokenIdToCouponInfo[_tokenId].tradable,\n        ownerOf(_tokenId)\n      );\n  }\n\n  function getMerchantInfo (address _merchantAdr) public view returns (\n    uint256 createdAt,\n    string memory merchantName,\n    string memory category,\n    string memory websiteUrl,\n    bool enabled\n      ) {\n      return (\n        addressToMerchant[_merchantAdr].createdAt,\n        addressToMerchant[_merchantAdr].name,\n        addressToMerchant[_merchantAdr].category,\n        addressToMerchant[_merchantAdr].websiteUrl,\n        addressToMerchant[_merchantAdr].enabled\n      );\n  }\n\n  function _make_payable(address x) internal pure returns (address payable) {\n       return address(uint160(x));\n   }\n\n   function buyCoupon(uint256 _tokenId) public  payable {\n       address ownerAddress = ownerOf(_tokenId);\n       require(msg.value == tokenIdToCouponInfo[_tokenId].price, \"You need to send the exact amount of Ether\");\n       _transferFrom(ownerAddress,  msg.sender, _tokenId);\n       address payable ownerAddressPayable = _make_payable(ownerAddress);\n       ownerAddressPayable.transfer(tokenIdToCouponInfo[_tokenId].price);\n       tokenIdToCouponInfo[_tokenId].tradable = false;\n   }\n\n\n   function tokensOfOwner(address _owner) external view returns(uint256[] memory ownerTokens) {\n        uint256 tokenCount = balanceOf(_owner);\n\n        if (tokenCount == 0) {\n            return new uint256[](0);\n        } else {\n            uint256[] memory result = new uint256[](tokenCount);\n            uint256 totalCoupons = totalSupply();\n            uint256 resultIndex = 0;\n            uint256 couponId;\n\n            for (couponId = 1; couponId <= totalCoupons; couponId++) {\n                if (ownerOf(couponId) == _owner) {\n                    result[resultIndex] = couponId;\n                    resultIndex++;\n                }\n            }\n\n            return result;\n        }\n      }\n\n}\n",
  "sourcePath": "/home/thorrwulf/Desktop/ethereum-coupoken/contracts/Coupoken.sol",
  "compiler": {
    "name": "solc",
    "version": "0.5.16+commit.9c3226ce.Emscripten.clang"
  },
  "schemaVersion": "3.1.0",
  "updatedAt": "2020-05-27T20:56:18.295Z",
  "networkType": "ethereum",
  "devdoc": {
    "methods": {
      "approve(address,uint256)": {
        "details": "Approves another address to transfer the given token ID The zero address indicates there is no approved address. There can only be one approved address per token at a given time. Can only be called by the token owner or an approved operator.",
        "params": {
          "to": "address to be approved for the given token ID",
          "tokenId": "uint256 ID of the token to be approved"
        }
      },
      "balanceOf(address)": {
        "details": "Gets the balance of the specified address.",
        "params": {
          "owner": "address to query the balance of"
        },
        "return": "uint256 representing the amount owned by the passed address"
      },
      "baseURI()": {
        "details": "Returns the base URI set via {_setBaseURI}. This will be automatically added as a preffix in {tokenURI} to each token's URI, when they are non-empty.    * _Available since v2.5.0._"
      },
      "getApproved(uint256)": {
        "details": "Gets the approved address for a token ID, or zero if no address set Reverts if the token ID does not exist.",
        "params": {
          "tokenId": "uint256 ID of the token to query the approval of"
        },
        "return": "address currently approved for the given token ID"
      },
      "isApprovedForAll(address,address)": {
        "details": "Tells whether an operator is approved by a given owner.",
        "params": {
          "operator": "operator address which you want to query the approval of",
          "owner": "owner address which you want to query the approval of"
        },
        "return": "bool whether the given operator is approved by the given owner"
      },
      "isOwner()": {
        "details": "Returns true if the caller is the current owner."
      },
      "mint(address,uint256)": {
        "details": "Function to mint tokens.",
        "params": {
          "to": "The address that will receive the minted token.",
          "tokenId": "The token id to mint."
        },
        "return": "A boolean that indicates if the operation was successful."
      },
      "name()": {
        "details": "Gets the token name.",
        "return": "string representing the token name"
      },
      "notPausable()": {
        "details": "Prevent the token from ever being paused again*"
      },
      "owner()": {
        "details": "Returns the address of the current owner."
      },
      "ownerOf(uint256)": {
        "details": "Gets the owner of the specified token ID.",
        "params": {
          "tokenId": "uint256 ID of the token to query the owner of"
        },
        "return": "address currently marked as the owner of the given token ID"
      },
      "pause()": {
        "details": "called by the owner to pause, triggers stopped state*"
      },
      "renounceOwnership()": {
        "details": "Leaves the contract without owner. It will not be possible to call `onlyOwner` functions anymore. Can only be called by the current owner.     * NOTE: Renouncing ownership will leave the contract without an owner, thereby removing any functionality that is only available to the owner."
      },
      "safeMint(address,uint256)": {
        "details": "Function to safely mint tokens.",
        "params": {
          "to": "The address that will receive the minted token.",
          "tokenId": "The token id to mint."
        },
        "return": "A boolean that indicates if the operation was successful."
      },
      "safeMint(address,uint256,bytes)": {
        "details": "Function to safely mint tokens.",
        "params": {
          "_data": "bytes data to send along with a safe transfer check.",
          "to": "The address that will receive the minted token.",
          "tokenId": "The token id to mint."
        },
        "return": "A boolean that indicates if the operation was successful."
      },
      "safeTransferFrom(address,address,uint256)": {
        "details": "Safely transfers the ownership of a given token ID to another address If the target address is a contract, it must implement {IERC721Receiver-onERC721Received}, which is called upon a safe transfer, and return the magic value `bytes4(keccak256(\"onERC721Received(address,address,uint256,bytes)\"))`; otherwise, the transfer is reverted. Requires the msg.sender to be the owner, approved, or operator",
        "params": {
          "from": "current owner of the token",
          "to": "address to receive the ownership of the given token ID",
          "tokenId": "uint256 ID of the token to be transferred"
        }
      },
      "safeTransferFrom(address,address,uint256,bytes)": {
        "details": "Safely transfers the ownership of a given token ID to another address If the target address is a contract, it must implement {IERC721Receiver-onERC721Received}, which is called upon a safe transfer, and return the magic value `bytes4(keccak256(\"onERC721Received(address,address,uint256,bytes)\"))`; otherwise, the transfer is reverted. Requires the _msgSender() to be the owner, approved, or operator",
        "params": {
          "_data": "bytes data to send along with a safe transfer check",
          "from": "current owner of the token",
          "to": "address to receive the ownership of the given token ID",
          "tokenId": "uint256 ID of the token to be transferred"
        }
      },
      "setApprovalForAll(address,bool)": {
        "details": "Sets or unsets the approval of a given operator An operator is allowed to transfer all tokens of the sender on their behalf.",
        "params": {
          "approved": "representing the status of the approval to be set",
          "to": "operator address to set the approval"
        }
      },
      "supportsInterface(bytes4)": {
        "details": "See {IERC165-supportsInterface}.     * Time complexity O(1), guaranteed to always use less than 30 000 gas."
      },
      "symbol()": {
        "details": "Gets the token symbol.",
        "return": "string representing the token symbol"
      },
      "tokenByIndex(uint256)": {
        "details": "Gets the token ID at a given index of all the tokens in this contract Reverts if the index is greater or equal to the total number of tokens.",
        "params": {
          "index": "uint256 representing the index to be accessed of the tokens list"
        },
        "return": "uint256 token ID at the given index of the tokens list"
      },
      "tokenOfOwnerByIndex(address,uint256)": {
        "details": "Gets the token ID at a given index of the tokens list of the requested owner.",
        "params": {
          "index": "uint256 representing the index to be accessed of the requested tokens list",
          "owner": "address owning the tokens list to be accessed"
        },
        "return": "uint256 token ID at the given index of the tokens list owned by the requested address"
      },
      "tokenURI(uint256)": {
        "details": "Returns the URI for a given token ID. May return an empty string.     * If the token's URI is non-empty and a base URI was set (via {_setBaseURI}), it will be added to the token ID's URI as a prefix.     * Reverts if the token ID does not exist."
      },
      "totalSupply()": {
        "details": "Gets the total amount of tokens stored by the contract.",
        "return": "uint256 representing the total amount of tokens"
      },
      "transferFrom(address,address,uint256)": {
        "details": "Transfers the ownership of a given token ID to another address. Usage of this method is discouraged, use {safeTransferFrom} whenever possible. Requires the msg.sender to be the owner, approved, or operator.",
        "params": {
          "from": "current owner of the token",
          "to": "address to receive the ownership of the given token ID",
          "tokenId": "uint256 ID of the token to be transferred"
        }
      },
      "transferOwnership(address)": {
        "details": "Transfers ownership of the contract to a new account (`newOwner`). Can only be called by the current owner."
      },
      "unpause()": {
        "details": "called by the owner to unpause, returns to normal state"
      }
    }
  },
  "userdoc": {
    "methods": {}
  }
}